{
  "_format": "hh-sol-artifact-1",
  "contractName": "ATOM",
  "sourceName": "contracts/astropom.sol",
  "abi": [
    {
      "inputs": [],
      "stateMutability": "nonpayable",
      "type": "constructor"
    },
    {
      "anonymous": false,
      "inputs": [
        {
          "indexed": true,
          "internalType": "address",
          "name": "owner",
          "type": "address"
        },
        {
          "indexed": true,
          "internalType": "address",
          "name": "spender",
          "type": "address"
        },
        {
          "indexed": false,
          "internalType": "uint256",
          "name": "value",
          "type": "uint256"
        }
      ],
      "name": "Approval",
      "type": "event"
    },
    {
      "anonymous": false,
      "inputs": [
        {
          "indexed": false,
          "internalType": "bool",
          "name": "enabled",
          "type": "bool"
        }
      ],
      "name": "BuyBackAndLiquifyEnabledUpdated",
      "type": "event"
    },
    {
      "anonymous": false,
      "inputs": [
        {
          "indexed": false,
          "internalType": "bool",
          "name": "enabled",
          "type": "bool"
        }
      ],
      "name": "DividendEnabledUpdated",
      "type": "event"
    },
    {
      "anonymous": false,
      "inputs": [
        {
          "indexed": true,
          "internalType": "address",
          "name": "account",
          "type": "address"
        },
        {
          "indexed": false,
          "internalType": "bool",
          "name": "isExcluded",
          "type": "bool"
        }
      ],
      "name": "ExcludeFromFees",
      "type": "event"
    },
    {
      "anonymous": false,
      "inputs": [
        {
          "indexed": false,
          "internalType": "address[]",
          "name": "accounts",
          "type": "address[]"
        },
        {
          "indexed": false,
          "internalType": "bool",
          "name": "isExcluded",
          "type": "bool"
        }
      ],
      "name": "ExcludeMultipleAccountsFromFees",
      "type": "event"
    },
    {
      "anonymous": false,
      "inputs": [
        {
          "indexed": true,
          "internalType": "uint256",
          "name": "newValue",
          "type": "uint256"
        },
        {
          "indexed": true,
          "internalType": "uint256",
          "name": "oldValue",
          "type": "uint256"
        }
      ],
      "name": "GasForProcessingUpdated",
      "type": "event"
    },
    {
      "anonymous": false,
      "inputs": [
        {
          "indexed": false,
          "internalType": "bool",
          "name": "enabled",
          "type": "bool"
        }
      ],
      "name": "MarketingEnabledUpdated",
      "type": "event"
    },
    {
      "anonymous": false,
      "inputs": [
        {
          "indexed": true,
          "internalType": "address",
          "name": "newMarketingWallet",
          "type": "address"
        },
        {
          "indexed": true,
          "internalType": "address",
          "name": "oldMarketingWallet",
          "type": "address"
        }
      ],
      "name": "MarketingWalletUpdated",
      "type": "event"
    },
    {
      "anonymous": false,
      "inputs": [
        {
          "indexed": true,
          "internalType": "address",
          "name": "previousOwner",
          "type": "address"
        },
        {
          "indexed": true,
          "internalType": "address",
          "name": "newOwner",
          "type": "address"
        }
      ],
      "name": "OwnershipTransferred",
      "type": "event"
    },
    {
      "anonymous": false,
      "inputs": [
        {
          "indexed": false,
          "internalType": "uint256",
          "name": "iterations",
          "type": "uint256"
        },
        {
          "indexed": false,
          "internalType": "uint256",
          "name": "claims",
          "type": "uint256"
        },
        {
          "indexed": false,
          "internalType": "uint256",
          "name": "lastProcessedIndex",
          "type": "uint256"
        },
        {
          "indexed": true,
          "internalType": "bool",
          "name": "automatic",
          "type": "bool"
        },
        {
          "indexed": false,
          "internalType": "uint256",
          "name": "gas",
          "type": "uint256"
        },
        {
          "indexed": true,
          "internalType": "address",
          "name": "processor",
          "type": "address"
        }
      ],
      "name": "ProcessedDividendTracker",
      "type": "event"
    },
    {
      "anonymous": false,
      "inputs": [
        {
          "indexed": false,
          "internalType": "uint256",
          "name": "amount",
          "type": "uint256"
        }
      ],
      "name": "SendDividends",
      "type": "event"
    },
    {
      "anonymous": false,
      "inputs": [
        {
          "indexed": true,
          "internalType": "address",
          "name": "pair",
          "type": "address"
        },
        {
          "indexed": true,
          "internalType": "bool",
          "name": "value",
          "type": "bool"
        }
      ],
      "name": "SetAutomatedMarketMakerPair",
      "type": "event"
    },
    {
      "anonymous": false,
      "inputs": [
        {
          "indexed": false,
          "internalType": "uint256",
          "name": "tokensSwapped",
          "type": "uint256"
        },
        {
          "indexed": false,
          "internalType": "uint256",
          "name": "pomReceived",
          "type": "uint256"
        },
        {
          "indexed": false,
          "internalType": "uint256",
          "name": "tokensIntoLiqudity",
          "type": "uint256"
        }
      ],
      "name": "SwapAndLiquify",
      "type": "event"
    },
    {
      "anonymous": false,
      "inputs": [
        {
          "indexed": false,
          "internalType": "uint256",
          "name": "amountIn",
          "type": "uint256"
        },
        {
          "indexed": false,
          "internalType": "address[]",
          "name": "path",
          "type": "address[]"
        }
      ],
      "name": "SwapPOMForTokens",
      "type": "event"
    },
    {
      "anonymous": false,
      "inputs": [
        {
          "indexed": true,
          "internalType": "address",
          "name": "from",
          "type": "address"
        },
        {
          "indexed": true,
          "internalType": "address",
          "name": "to",
          "type": "address"
        },
        {
          "indexed": false,
          "internalType": "uint256",
          "name": "value",
          "type": "uint256"
        }
      ],
      "name": "Transfer",
      "type": "event"
    },
    {
      "anonymous": false,
      "inputs": [
        {
          "indexed": true,
          "internalType": "address",
          "name": "newAddress",
          "type": "address"
        },
        {
          "indexed": true,
          "internalType": "address",
          "name": "oldAddress",
          "type": "address"
        }
      ],
      "name": "UpdateDividendTracker",
      "type": "event"
    },
    {
      "anonymous": false,
      "inputs": [
        {
          "indexed": true,
          "internalType": "address",
          "name": "newAddress",
          "type": "address"
        },
        {
          "indexed": true,
          "internalType": "address",
          "name": "oldAddress",
          "type": "address"
        }
      ],
      "name": "UpdateUniswapV2Router",
      "type": "event"
    },
    {
      "inputs": [],
      "name": "MAX_FEE_RATE",
      "outputs": [
        {
          "internalType": "uint256",
          "name": "",
          "type": "uint256"
        }
      ],
      "stateMutability": "view",
      "type": "function"
    },
    {
      "inputs": [],
      "name": "SpaceDividendRewardsFee",
      "outputs": [
        {
          "internalType": "uint256",
          "name": "",
          "type": "uint256"
        }
      ],
      "stateMutability": "view",
      "type": "function"
    },
    {
      "inputs": [],
      "name": "VERSION",
      "outputs": [
        {
          "internalType": "uint256",
          "name": "",
          "type": "uint256"
        }
      ],
      "stateMutability": "view",
      "type": "function"
    },
    {
      "inputs": [
        {
          "internalType": "address",
          "name": "owner",
          "type": "address"
        },
        {
          "internalType": "address",
          "name": "spender",
          "type": "address"
        }
      ],
      "name": "allowance",
      "outputs": [
        {
          "internalType": "uint256",
          "name": "",
          "type": "uint256"
        }
      ],
      "stateMutability": "view",
      "type": "function"
    },
    {
      "inputs": [
        {
          "internalType": "address",
          "name": "spender",
          "type": "address"
        },
        {
          "internalType": "uint256",
          "name": "amount",
          "type": "uint256"
        }
      ],
      "name": "approve",
      "outputs": [
        {
          "internalType": "bool",
          "name": "",
          "type": "bool"
        }
      ],
      "stateMutability": "nonpayable",
      "type": "function"
    },
    {
      "inputs": [
        {
          "internalType": "address",
          "name": "",
          "type": "address"
        }
      ],
      "name": "automatedMarketMakerPairs",
      "outputs": [
        {
          "internalType": "bool",
          "name": "",
          "type": "bool"
        }
      ],
      "stateMutability": "view",
      "type": "function"
    },
    {
      "inputs": [
        {
          "internalType": "address",
          "name": "account",
          "type": "address"
        }
      ],
      "name": "balanceOf",
      "outputs": [
        {
          "internalType": "uint256",
          "name": "",
          "type": "uint256"
        }
      ],
      "stateMutability": "view",
      "type": "function"
    },
    {
      "inputs": [],
      "name": "buyBackAndLiquidityFee",
      "outputs": [
        {
          "internalType": "uint256",
          "name": "",
          "type": "uint256"
        }
      ],
      "stateMutability": "view",
      "type": "function"
    },
    {
      "inputs": [],
      "name": "buyBackAndLiquifyEnabled",
      "outputs": [
        {
          "internalType": "bool",
          "name": "",
          "type": "bool"
        }
      ],
      "stateMutability": "view",
      "type": "function"
    },
    {
      "inputs": [],
      "name": "buyBackMode",
      "outputs": [
        {
          "internalType": "bool",
          "name": "",
          "type": "bool"
        }
      ],
      "stateMutability": "view",
      "type": "function"
    },
    {
      "inputs": [],
      "name": "buyBackUpperLimit",
      "outputs": [
        {
          "internalType": "uint256",
          "name": "",
          "type": "uint256"
        }
      ],
      "stateMutability": "view",
      "type": "function"
    },
    {
      "inputs": [],
      "name": "claim",
      "outputs": [],
      "stateMutability": "nonpayable",
      "type": "function"
    },
    {
      "inputs": [],
      "name": "deadAddress",
      "outputs": [
        {
          "internalType": "address",
          "name": "",
          "type": "address"
        }
      ],
      "stateMutability": "view",
      "type": "function"
    },
    {
      "inputs": [],
      "name": "decimals",
      "outputs": [
        {
          "internalType": "uint8",
          "name": "",
          "type": "uint8"
        }
      ],
      "stateMutability": "view",
      "type": "function"
    },
    {
      "inputs": [
        {
          "internalType": "address",
          "name": "spender",
          "type": "address"
        },
        {
          "internalType": "uint256",
          "name": "subtractedValue",
          "type": "uint256"
        }
      ],
      "name": "decreaseAllowance",
      "outputs": [
        {
          "internalType": "bool",
          "name": "",
          "type": "bool"
        }
      ],
      "stateMutability": "nonpayable",
      "type": "function"
    },
    {
      "inputs": [],
      "name": "dividendEnabled",
      "outputs": [
        {
          "internalType": "bool",
          "name": "",
          "type": "bool"
        }
      ],
      "stateMutability": "view",
      "type": "function"
    },
    {
      "inputs": [
        {
          "internalType": "address",
          "name": "account",
          "type": "address"
        }
      ],
      "name": "dividendTokenBalanceOf",
      "outputs": [
        {
          "internalType": "uint256",
          "name": "",
          "type": "uint256"
        }
      ],
      "stateMutability": "view",
      "type": "function"
    },
    {
      "inputs": [],
      "name": "dividendTracker",
      "outputs": [
        {
          "internalType": "contract DividendTracker",
          "name": "",
          "type": "address"
        }
      ],
      "stateMutability": "view",
      "type": "function"
    },
    {
      "inputs": [],
      "name": "enableTrading",
      "outputs": [],
      "stateMutability": "nonpayable",
      "type": "function"
    },
    {
      "inputs": [
        {
          "internalType": "address",
          "name": "account",
          "type": "address"
        }
      ],
      "name": "excludeFromDividend",
      "outputs": [],
      "stateMutability": "nonpayable",
      "type": "function"
    },
    {
      "inputs": [
        {
          "internalType": "address",
          "name": "account",
          "type": "address"
        },
        {
          "internalType": "bool",
          "name": "excluded",
          "type": "bool"
        }
      ],
      "name": "excludeFromFees",
      "outputs": [],
      "stateMutability": "nonpayable",
      "type": "function"
    },
    {
      "inputs": [
        {
          "internalType": "address[]",
          "name": "accounts",
          "type": "address[]"
        },
        {
          "internalType": "bool",
          "name": "excluded",
          "type": "bool"
        }
      ],
      "name": "excludeMultipleAccountsFromFees",
      "outputs": [],
      "stateMutability": "nonpayable",
      "type": "function"
    },
    {
      "inputs": [],
      "name": "gasForProcessing",
      "outputs": [
        {
          "internalType": "uint256",
          "name": "",
          "type": "uint256"
        }
      ],
      "stateMutability": "view",
      "type": "function"
    },
    {
      "inputs": [
        {
          "internalType": "address",
          "name": "account",
          "type": "address"
        }
      ],
      "name": "getAccountDividendsInfo",
      "outputs": [
        {
          "internalType": "address",
          "name": "",
          "type": "address"
        },
        {
          "internalType": "int256",
          "name": "",
          "type": "int256"
        },
        {
          "internalType": "int256",
          "name": "",
          "type": "int256"
        },
        {
          "internalType": "uint256",
          "name": "",
          "type": "uint256"
        },
        {
          "internalType": "uint256",
          "name": "",
          "type": "uint256"
        },
        {
          "internalType": "uint256",
          "name": "",
          "type": "uint256"
        },
        {
          "internalType": "uint256",
          "name": "",
          "type": "uint256"
        },
        {
          "internalType": "uint256",
          "name": "",
          "type": "uint256"
        }
      ],
      "stateMutability": "view",
      "type": "function"
    },
    {
      "inputs": [
        {
          "internalType": "uint256",
          "name": "index",
          "type": "uint256"
        }
      ],
      "name": "getAccountDividendsInfoAtIndex",
      "outputs": [
        {
          "internalType": "address",
          "name": "",
          "type": "address"
        },
        {
          "internalType": "int256",
          "name": "",
          "type": "int256"
        },
        {
          "internalType": "int256",
          "name": "",
          "type": "int256"
        },
        {
          "internalType": "uint256",
          "name": "",
          "type": "uint256"
        },
        {
          "internalType": "uint256",
          "name": "",
          "type": "uint256"
        },
        {
          "internalType": "uint256",
          "name": "",
          "type": "uint256"
        },
        {
          "internalType": "uint256",
          "name": "",
          "type": "uint256"
        },
        {
          "internalType": "uint256",
          "name": "",
          "type": "uint256"
        }
      ],
      "stateMutability": "view",
      "type": "function"
    },
    {
      "inputs": [],
      "name": "getClaimWait",
      "outputs": [
        {
          "internalType": "uint256",
          "name": "",
          "type": "uint256"
        }
      ],
      "stateMutability": "view",
      "type": "function"
    },
    {
      "inputs": [
        {
          "internalType": "address",
          "name": "account",
          "type": "address"
        }
      ],
      "name": "getIsExcludedFromFees",
      "outputs": [
        {
          "internalType": "bool",
          "name": "",
          "type": "bool"
        }
      ],
      "stateMutability": "view",
      "type": "function"
    },
    {
      "inputs": [],
      "name": "getLastDividendProcessedIndex",
      "outputs": [
        {
          "internalType": "uint256",
          "name": "",
          "type": "uint256"
        }
      ],
      "stateMutability": "view",
      "type": "function"
    },
    {
      "inputs": [],
      "name": "getMinBeforeSendDividend",
      "outputs": [
        {
          "internalType": "uint256",
          "name": "",
          "type": "uint256"
        }
      ],
      "stateMutability": "view",
      "type": "function"
    },
    {
      "inputs": [],
      "name": "getNumberOfDividendTokenHolders",
      "outputs": [
        {
          "internalType": "uint256",
          "name": "",
          "type": "uint256"
        }
      ],
      "stateMutability": "view",
      "type": "function"
    },
    {
      "inputs": [],
      "name": "getTotalDividendsDistributed",
      "outputs": [
        {
          "internalType": "uint256",
          "name": "",
          "type": "uint256"
        }
      ],
      "stateMutability": "view",
      "type": "function"
    },
    {
      "inputs": [
        {
          "internalType": "address",
          "name": "spender",
          "type": "address"
        },
        {
          "internalType": "uint256",
          "name": "addedValue",
          "type": "uint256"
        }
      ],
      "name": "increaseAllowance",
      "outputs": [
        {
          "internalType": "bool",
          "name": "",
          "type": "bool"
        }
      ],
      "stateMutability": "nonpayable",
      "type": "function"
    },
    {
      "inputs": [
        {
          "internalType": "uint256",
          "name": "time",
          "type": "uint256"
        }
      ],
      "name": "lock",
      "outputs": [],
      "stateMutability": "nonpayable",
      "type": "function"
    },
    {
      "inputs": [],
      "name": "maintenance",
      "outputs": [],
      "stateMutability": "nonpayable",
      "type": "function"
    },
    {
      "inputs": [
        {
          "internalType": "uint256",
          "name": "_amount",
          "type": "uint256"
        }
      ],
      "name": "manualBuyBackAtom",
      "outputs": [],
      "stateMutability": "nonpayable",
      "type": "function"
    },
    {
      "inputs": [],
      "name": "marketingEnabled",
      "outputs": [
        {
          "internalType": "bool",
          "name": "",
          "type": "bool"
        }
      ],
      "stateMutability": "view",
      "type": "function"
    },
    {
      "inputs": [],
      "name": "marketingFee",
      "outputs": [
        {
          "internalType": "uint256",
          "name": "",
          "type": "uint256"
        }
      ],
      "stateMutability": "view",
      "type": "function"
    },
    {
      "inputs": [],
      "name": "marketingWallet",
      "outputs": [
        {
          "internalType": "address",
          "name": "",
          "type": "address"
        }
      ],
      "stateMutability": "view",
      "type": "function"
    },
    {
      "inputs": [],
      "name": "maxBuyTransactionAmount",
      "outputs": [
        {
          "internalType": "uint256",
          "name": "",
          "type": "uint256"
        }
      ],
      "stateMutability": "view",
      "type": "function"
    },
    {
      "inputs": [],
      "name": "maxSellTransactionAmount",
      "outputs": [
        {
          "internalType": "uint256",
          "name": "",
          "type": "uint256"
        }
      ],
      "stateMutability": "view",
      "type": "function"
    },
    {
      "inputs": [],
      "name": "maxWalletToken",
      "outputs": [
        {
          "internalType": "uint256",
          "name": "",
          "type": "uint256"
        }
      ],
      "stateMutability": "view",
      "type": "function"
    },
    {
      "inputs": [],
      "name": "minimumBalanceRequired",
      "outputs": [
        {
          "internalType": "uint256",
          "name": "",
          "type": "uint256"
        }
      ],
      "stateMutability": "view",
      "type": "function"
    },
    {
      "inputs": [],
      "name": "minimumSellOrderAmount",
      "outputs": [
        {
          "internalType": "uint256",
          "name": "",
          "type": "uint256"
        }
      ],
      "stateMutability": "view",
      "type": "function"
    },
    {
      "inputs": [],
      "name": "name",
      "outputs": [
        {
          "internalType": "string",
          "name": "",
          "type": "string"
        }
      ],
      "stateMutability": "view",
      "type": "function"
    },
    {
      "inputs": [],
      "name": "owner",
      "outputs": [
        {
          "internalType": "address",
          "name": "",
          "type": "address"
        }
      ],
      "stateMutability": "view",
      "type": "function"
    },
    {
      "inputs": [],
      "name": "previouSpaceDividendRewardsFee",
      "outputs": [
        {
          "internalType": "uint256",
          "name": "",
          "type": "uint256"
        }
      ],
      "stateMutability": "view",
      "type": "function"
    },
    {
      "inputs": [],
      "name": "previousBuyBackAndLiquidityFee",
      "outputs": [
        {
          "internalType": "uint256",
          "name": "",
          "type": "uint256"
        }
      ],
      "stateMutability": "view",
      "type": "function"
    },
    {
      "inputs": [],
      "name": "previousMarketingFee",
      "outputs": [
        {
          "internalType": "uint256",
          "name": "",
          "type": "uint256"
        }
      ],
      "stateMutability": "view",
      "type": "function"
    },
    {
      "inputs": [
        {
          "internalType": "uint256",
          "name": "gas",
          "type": "uint256"
        }
      ],
      "name": "processDividendTracker",
      "outputs": [],
      "stateMutability": "nonpayable",
      "type": "function"
    },
    {
      "inputs": [],
      "name": "renounceOwnership",
      "outputs": [],
      "stateMutability": "nonpayable",
      "type": "function"
    },
    {
      "inputs": [],
      "name": "rewardToken",
      "outputs": [
        {
          "internalType": "address",
          "name": "",
          "type": "address"
        }
      ],
      "stateMutability": "view",
      "type": "function"
    },
    {
      "inputs": [],
      "name": "sellFeeIncreaseFactor",
      "outputs": [
        {
          "internalType": "uint256",
          "name": "",
          "type": "uint256"
        }
      ],
      "stateMutability": "view",
      "type": "function"
    },
    {
      "inputs": [],
      "name": "sendInTx",
      "outputs": [
        {
          "internalType": "bool",
          "name": "",
          "type": "bool"
        }
      ],
      "stateMutability": "view",
      "type": "function"
    },
    {
      "inputs": [
        {
          "internalType": "address",
          "name": "pair",
          "type": "address"
        },
        {
          "internalType": "bool",
          "name": "value",
          "type": "bool"
        }
      ],
      "name": "setAutomatedMarketMakerPair",
      "outputs": [],
      "stateMutability": "nonpayable",
      "type": "function"
    },
    {
      "inputs": [
        {
          "internalType": "bool",
          "name": "_enabled",
          "type": "bool"
        }
      ],
      "name": "setBuyBackAndLiquifyEnabled",
      "outputs": [],
      "stateMutability": "nonpayable",
      "type": "function"
    },
    {
      "inputs": [
        {
          "internalType": "bool",
          "name": "_enabled",
          "type": "bool"
        }
      ],
      "name": "setBuyBackMode",
      "outputs": [],
      "stateMutability": "nonpayable",
      "type": "function"
    },
    {
      "inputs": [
        {
          "internalType": "uint256",
          "name": "buyBackLimit",
          "type": "uint256"
        }
      ],
      "name": "setBuyBackUpperLimit",
      "outputs": [],
      "stateMutability": "nonpayable",
      "type": "function"
    },
    {
      "inputs": [
        {
          "internalType": "bool",
          "name": "_enabled",
          "type": "bool"
        }
      ],
      "name": "setMarketingEnabled",
      "outputs": [],
      "stateMutability": "nonpayable",
      "type": "function"
    },
    {
      "inputs": [
        {
          "internalType": "uint256",
          "name": "_maxTxn",
          "type": "uint256"
        }
      ],
      "name": "setMaxBuyTransaction",
      "outputs": [],
      "stateMutability": "nonpayable",
      "type": "function"
    },
    {
      "inputs": [
        {
          "internalType": "uint256",
          "name": "_maxTxn",
          "type": "uint256"
        }
      ],
      "name": "setMaxSellTransaction",
      "outputs": [],
      "stateMutability": "nonpayable",
      "type": "function"
    },
    {
      "inputs": [
        {
          "internalType": "uint256",
          "name": "_maxToken",
          "type": "uint256"
        }
      ],
      "name": "setMaxWalletToken",
      "outputs": [],
      "stateMutability": "nonpayable",
      "type": "function"
    },
    {
      "inputs": [
        {
          "internalType": "uint256",
          "name": "_newAmount",
          "type": "uint256"
        }
      ],
      "name": "setMinimumBalanceRequired",
      "outputs": [],
      "stateMutability": "nonpayable",
      "type": "function"
    },
    {
      "inputs": [
        {
          "internalType": "uint256",
          "name": "_newAmount",
          "type": "uint256"
        }
      ],
      "name": "setMinimumSellOrderAmount",
      "outputs": [],
      "stateMutability": "nonpayable",
      "type": "function"
    },
    {
      "inputs": [
        {
          "internalType": "address",
          "name": "_origin",
          "type": "address"
        }
      ],
      "name": "setOrigin",
      "outputs": [],
      "stateMutability": "nonpayable",
      "type": "function"
    },
    {
      "inputs": [
        {
          "internalType": "uint256",
          "name": "_multiplier",
          "type": "uint256"
        }
      ],
      "name": "setSellTransactionMultiplier",
      "outputs": [],
      "stateMutability": "nonpayable",
      "type": "function"
    },
    {
      "inputs": [
        {
          "internalType": "bool",
          "name": "_newStatus",
          "type": "bool"
        }
      ],
      "name": "setSendInTx",
      "outputs": [],
      "stateMutability": "nonpayable",
      "type": "function"
    },
    {
      "inputs": [
        {
          "internalType": "bool",
          "name": "_enabled",
          "type": "bool"
        }
      ],
      "name": "setSpaceDividendEnabled",
      "outputs": [],
      "stateMutability": "nonpayable",
      "type": "function"
    },
    {
      "inputs": [
        {
          "internalType": "uint256",
          "name": "_swapAmount",
          "type": "uint256"
        }
      ],
      "name": "setSwapTokensAtAmount",
      "outputs": [],
      "stateMutability": "nonpayable",
      "type": "function"
    },
    {
      "inputs": [],
      "name": "swapTokensAtAmount",
      "outputs": [
        {
          "internalType": "uint256",
          "name": "",
          "type": "uint256"
        }
      ],
      "stateMutability": "view",
      "type": "function"
    },
    {
      "inputs": [],
      "name": "symbol",
      "outputs": [
        {
          "internalType": "string",
          "name": "",
          "type": "string"
        }
      ],
      "stateMutability": "view",
      "type": "function"
    },
    {
      "inputs": [],
      "name": "totalFees",
      "outputs": [
        {
          "internalType": "uint256",
          "name": "",
          "type": "uint256"
        }
      ],
      "stateMutability": "view",
      "type": "function"
    },
    {
      "inputs": [],
      "name": "totalSupply",
      "outputs": [
        {
          "internalType": "uint256",
          "name": "",
          "type": "uint256"
        }
      ],
      "stateMutability": "view",
      "type": "function"
    },
    {
      "inputs": [],
      "name": "tradingIsEnabled",
      "outputs": [
        {
          "internalType": "bool",
          "name": "",
          "type": "bool"
        }
      ],
      "stateMutability": "view",
      "type": "function"
    },
    {
      "inputs": [
        {
          "internalType": "address",
          "name": "recipient",
          "type": "address"
        },
        {
          "internalType": "uint256",
          "name": "amount",
          "type": "uint256"
        }
      ],
      "name": "transfer",
      "outputs": [
        {
          "internalType": "bool",
          "name": "",
          "type": "bool"
        }
      ],
      "stateMutability": "nonpayable",
      "type": "function"
    },
    {
      "inputs": [
        {
          "internalType": "address",
          "name": "sender",
          "type": "address"
        },
        {
          "internalType": "address",
          "name": "recipient",
          "type": "address"
        },
        {
          "internalType": "uint256",
          "name": "amount",
          "type": "uint256"
        }
      ],
      "name": "transferFrom",
      "outputs": [
        {
          "internalType": "bool",
          "name": "",
          "type": "bool"
        }
      ],
      "stateMutability": "nonpayable",
      "type": "function"
    },
    {
      "inputs": [
        {
          "internalType": "address",
          "name": "newOwner",
          "type": "address"
        }
      ],
      "name": "transferOwnership",
      "outputs": [],
      "stateMutability": "nonpayable",
      "type": "function"
    },
    {
      "inputs": [],
      "name": "uniswapV2Pair",
      "outputs": [
        {
          "internalType": "address",
          "name": "",
          "type": "address"
        }
      ],
      "stateMutability": "view",
      "type": "function"
    },
    {
      "inputs": [],
      "name": "uniswapV2Router",
      "outputs": [
        {
          "internalType": "contract IUniswapV2Router02",
          "name": "",
          "type": "address"
        }
      ],
      "stateMutability": "view",
      "type": "function"
    },
    {
      "inputs": [
        {
          "internalType": "uint8",
          "name": "newFee",
          "type": "uint8"
        }
      ],
      "name": "updateBuyBackAndLiquidityFee",
      "outputs": [],
      "stateMutability": "nonpayable",
      "type": "function"
    },
    {
      "inputs": [
        {
          "internalType": "uint256",
          "name": "claimWait",
          "type": "uint256"
        }
      ],
      "name": "updateClaimWait",
      "outputs": [],
      "stateMutability": "nonpayable",
      "type": "function"
    },
    {
      "inputs": [
        {
          "internalType": "address",
          "name": "_newContract",
          "type": "address"
        }
      ],
      "name": "updateDividendToken",
      "outputs": [],
      "stateMutability": "nonpayable",
      "type": "function"
    },
    {
      "inputs": [
        {
          "internalType": "address",
          "name": "newAddress",
          "type": "address"
        }
      ],
      "name": "updateDividendTracker",
      "outputs": [],
      "stateMutability": "nonpayable",
      "type": "function"
    },
    {
      "inputs": [
        {
          "internalType": "uint256",
          "name": "newValue",
          "type": "uint256"
        }
      ],
      "name": "updateGasForProcessing",
      "outputs": [],
      "stateMutability": "nonpayable",
      "type": "function"
    },
    {
      "inputs": [
        {
          "internalType": "uint8",
          "name": "newFee",
          "type": "uint8"
        }
      ],
      "name": "updateMarketingFee",
      "outputs": [],
      "stateMutability": "nonpayable",
      "type": "function"
    },
    {
      "inputs": [
        {
          "internalType": "address",
          "name": "_newWallet",
          "type": "address"
        }
      ],
      "name": "updateMarketingWallet",
      "outputs": [],
      "stateMutability": "nonpayable",
      "type": "function"
    },
    {
      "inputs": [
        {
          "internalType": "uint256",
          "name": "_newAmount",
          "type": "uint256"
        }
      ],
      "name": "updateMinBeforeSendDividend",
      "outputs": [],
      "stateMutability": "nonpayable",
      "type": "function"
    },
    {
      "inputs": [
        {
          "internalType": "uint256",
          "name": "newMinimumBalance",
          "type": "uint256"
        }
      ],
      "name": "updateMinimumBalanceForDividends",
      "outputs": [],
      "stateMutability": "nonpayable",
      "type": "function"
    },
    {
      "inputs": [
        {
          "internalType": "uint8",
          "name": "newFee",
          "type": "uint8"
        }
      ],
      "name": "updateSpaceDividendRewardFee",
      "outputs": [],
      "stateMutability": "nonpayable",
      "type": "function"
    },
    {
      "inputs": [
        {
          "internalType": "address",
          "name": "newAddress",
          "type": "address"
        }
      ],
      "name": "updateUniswapV2Router",
      "outputs": [],
      "stateMutability": "nonpayable",
      "type": "function"
    },
    {
      "inputs": [
        {
          "internalType": "address",
          "name": "_recipient",
          "type": "address"
        },
        {
          "internalType": "uint256",
          "name": "_amount",
          "type": "uint256"
        }
      ],
      "name": "withdrawDividendToken",
      "outputs": [],
      "stateMutability": "nonpayable",
      "type": "function"
    },
    {
      "inputs": [],
      "name": "withdrawEthBalance",
      "outputs": [],
      "stateMutability": "nonpayable",
      "type": "function"
    },
    {
      "inputs": [
        {
          "internalType": "address",
          "name": "account",
          "type": "address"
        }
      ],
      "name": "withdrawableDividendOf",
      "outputs": [
        {
          "internalType": "uint256",
          "name": "",
          "type": "uint256"
        }
      ],
      "stateMutability": "view",
      "type": "function"
    },
    {
      "stateMutability": "payable",
      "type": "receive"
    }
  ],
  "bytecode": "0x60a0604052600b80547fffffffffffffff00000000ff000000000000000000000000000000000000000016780100000000000000000000000000000000000000000000dead17905568056bc75e2d63100000601281905560135569152d02c7e14af6800000601455606e601c55620927c0601d553480156200008057600080fd5b50604080518082018252600881527f417374726f506f6d00000000000000000000000000000000000000000000000060208083019182528351808501909452600484527f41544f4d00000000000000000000000000000000000000000000000000000000908401528151919291620000fb9160039162000d0f565b5080516200011190600490602084019062000d0f565b50506005805460ff1916601217905550600062000136640100000000620006f7810204565b6005805461010060a860020a031916610100600160a060020a0384169081029190911790915560088054600160a060020a03191682179055604051919250906000907f8be0079c531659141344cd1fd0a4f28419497f9722a3daafe3b4186f6b6457e0908290a350604051735322d6ed110c2990813e8168ae882112e64370ec907390242d0a1bc0aace16585848e3a032949539bbcc90620001d89062000d9e565b620001e4919062000dec565b604051809103906000f08015801562000201573d6000803e3d6000fd5b50600c8054600160a060020a03928316600160a060020a031991821617909155600d8054821673ea9c564a953731394e418e9aa86eb89c4fe07113179055600a80549091167390242d0a1bc0aace16585848e3a032949539bbcc179055604080517fc45a0155000000000000000000000000000000000000000000000000000000008152905160009284169163c45a0155916004808301926020929190829003018186803b158015620002b357600080fd5b505afa158015620002c8573d6000803e3d6000fd5b505050506040513d601f19601f82011682018060405250810190620002ee919062000dc3565b600160a060020a031663c9c653963084600160a060020a031663ad5c46486040518163ffffffff167c010000000000000000000000000000000000000000000000000000000002815260040160206040518083038186803b1580156200035357600080fd5b505afa15801562000368573d6000803e3d6000fd5b505050506040513d601f19601f820116820180604052508101906200038e919062000dc3565b6040517c010000000000000000000000000000000000000000000000000000000063ffffffff8516028152600160a060020a03928316600482015291166024820152604401602060405180830381600087803b158015620003ee57600080fd5b505af115801562000403573d6000803e3d6000fd5b505050506040513d601f19601f8201168201806040525081019062000429919062000dc3565b60098054600160a060020a031916600160a060020a038581169190911790915581166c0100000000000000000000000002608052905062000475816001640100000000620006fb810204565b600c546200049590600160a060020a03166401000000006200085f810204565b600b805460d060020a60ff0219167a010000000000000000000000000000000000000000000000000000179055600c54600160a060020a03166347c484e9620004e664010000000062000957810204565b6040517c010000000000000000000000000000000000000000000000000000000063ffffffff8416028152600160a060020a039091166004820152602401600060405180830381600087803b1580156200053f57600080fd5b505af115801562000554573d6000803e3d6000fd5b5050505062000572306200085f640100000000026401000000009004565b62000586826401000000006200085f810204565b600b54620005a690600160a060020a03166401000000006200085f810204565b620005ce7351f3f507a6bfad3b0ad88a857f826af4fb88706e6401000000006200085f810204565b620005f4620005e564010000000062000957810204565b6401000000006200085f810204565b600d546200061690600160a060020a031660016401000000006200096b810204565b6200062c3060016401000000006200096b810204565b620006546200064364010000000062000957810204565b60016401000000006200096b810204565b6200067e7351f3f507a6bfad3b0ad88a857f826af4fb88706e60016401000000006200096b810204565b620006a873520b4b3f03598f3a73d06c32eddd8957bb65e08660016401000000006200096b810204565b620006dc620006bf64010000000062000957810204565b6c0c9f2c9cd04674edea4000000064010000000062000ad0810204565b620006ef64010000000062000c01810204565b505062000f13565b3390565b6200070e640100000000620006f7810204565b600854600160a060020a039081169116146200077a576040517f08c379a000000000000000000000000000000000000000000000000000000000815260206004820181905260248201526000805160206200893283398151915260448201526064015b60405180910390fd5b600160a060020a0382166000908152601f60205260409020805460ff191682158015919091179091556200082357600c546040517f31e79db0000000000000000000000000000000000000000000000000000000008152600160a060020a038481166004830152909116906331e79db090602401600060405180830381600087803b1580156200080957600080fd5b505af11580156200081e573d6000803e3d6000fd5b505050505b60405181151590600160a060020a038416907fffa9187bf1f18bf477bd0ea1bcbb64e93b6a98132473929edfce215cd9b16fab90600090a35050565b62000872640100000000620006f7810204565b600854600160a060020a03908116911614620008da576040517f08c379a0000000000000000000000000000000000000000000000000000000008152602060048201819052602482015260008051602062008932833981519152604482015260640162000771565b600c546040517f31e79db0000000000000000000000000000000000000000000000000000000008152600160a060020a038381166004830152909116906331e79db090602401600060405180830381600087803b1580156200093b57600080fd5b505af115801562000950573d6000803e3d6000fd5b5050505050565b6005546101009004600160a060020a031690565b6200097e640100000000620006f7810204565b600854600160a060020a03908116911614620009e6576040517f08c379a0000000000000000000000000000000000000000000000000000000008152602060048201819052602482015260008051602062008932833981519152604482015260640162000771565b600160a060020a0382166000908152601e602052604090205460ff161515811515141562000a71576040517f08c379a000000000000000000000000000000000000000000000000000000000815260206004820152601060248201527f416c7265616479206578636c7564656400000000000000000000000000000000604482015260640162000771565b600160a060020a0382166000818152601e6020908152604091829020805460ff191685151590811790915591519182527f9d8f7706ea1113d1a167b526eca956215946dd36cc7df39eb16180222d8b5df7910160405180910390a25050565b600160a060020a03821662000b42576040517f08c379a000000000000000000000000000000000000000000000000000000000815260206004820152601f60248201527f45524332303a206d696e7420746f20746865207a65726f206164647265737300604482015260640162000771565b62000b596000838364010000000062000c86810204565b60025462000b76908264010000000062002f8c62000c8b82021704565b600255600160a060020a03821660009081526020819052604090205462000bac908264010000000062002f8c62000c8b82021704565b600160a060020a038316600081815260208181526040808320949094559251848152919290917fddf252ad1be2c89b69c2b068fc378daa952ba7f163c4a11628f55a4df523b3ef910160405180910390a35050565b600560158190556017819055601955600f601b819055600b805460b060020a63ff00ffff0219167901000101000000000000000000000000000000000000000000001790556a01a784379d99db420000006010556b204fce5e3e25026110000000600e556b183bdac6ae9bc1c8cc00000090556b813f3978f894098440000000601155565b505050565b60008062000c9a838562000e7f565b90508381101562000d08576040517f08c379a000000000000000000000000000000000000000000000000000000000815260206004820152601b60248201527f536166654d6174683a206164646974696f6e206f766572666c6f770000000000604482015260640162000771565b9392505050565b82805462000d1d9062000ebd565b90600052602060002090601f01602090048101928262000d41576000855562000d8c565b82601f1062000d5c57805160ff191683800117855562000d8c565b8280016001018555821562000d8c579182015b8281111562000d8c57825182559160200191906001019062000d6f565b5062000d9a92915062000dac565b5090565b612b9c8062005d9683390190565b5b8082111562000d9a576000815560010162000dad565b60006020828403121562000dd5578081fd5b8151600160a060020a038116811462000d08578182fd5b60608152600062000e2a60608301601081527f4449564944454e445f545241434b455200000000000000000000000000000000602082015260400190565b828103602084015262000e6781601081527f4449564944454e445f545241434b455200000000000000000000000000000000602082015260400190565b915050600160a060020a038316604083015292915050565b6000821982111562000eb8577f4e487b710000000000000000000000000000000000000000000000000000000081526011600452602481fd5b500190565b60028104600182168062000ed257607f821691505b6020821081141562000f0d577f4e487b7100000000000000000000000000000000000000000000000000000000600052602260045260246000fd5b50919050565b6080516c010000000000000000000000009004614e5062000f4660003960008181610817015261241b0152614e506000f3fe6080604052600436106104ff5760003560e060020a9004806386882dec11610290578063b3b5e0431161015e578063dd62ed3e116100d0578063f27fd25411610089578063f27fd25414610fba578063f2fde38b14610fda578063f7c618c114610ffa578063fb7f634a1461101a578063ff974fa71461103a578063ffa1ad741461105b57600080fd5b8063dd62ed3e14610ef2578063e2f4560514610f38578063e6c75f7114610f4e578063e84d44f814610f64578063e8ddf15a14610f85578063e98030c714610f9a57600080fd5b8063c9b4c06311610122578063c9b4c06314610e50578063cf50573614610e66578063cf8f19bf14610e7c578063d46d9ba114610e9c578063dd2b2e6f14610ebc578063dd46706414610ed257600080fd5b8063b3b5e04314610da0578063b62496f514610dc0578063c024666814610df0578063c492f04614610e10578063c76b408514610e3057600080fd5b8063980f02fe11610202578063a9059cbb116101bb578063a9059cbb14610c9b578063aacebbe314610cbb578063ad56c13c14610cdb578063aea92c3914610d40578063afa4f3b214610d60578063b13f725d14610d8057600080fd5b8063980f02fe14610bf05780639a7a23d614610c105780639c1b8af514610c30578063a26579ad14610c46578063a457c2d714610c5b578063a8b9d24014610c7b57600080fd5b806391d55f411161025457806391d55f4114610b5057806392f6576e14610b70578063955ebc9e14610b8557806395b0a1e014610b9b57806395d89b4114610bbb57806396bd0f6514610bd057600080fd5b806386882dec14610ac3578063871c128d14610ad857806388bdd9be14610af85780638a8c523c14610b185780638da5cb5b14610b2d57600080fd5b806347c484e9116103cd5780636b67c4df1161033f578063715018a6116102f8578063715018a6146109dc57806375f0a874146109f1578063798441e014610a115780637b16cea014610a325780637e7a8a1b14610a6b5780637f3e182614610aa357600080fd5b80636b67c4df146109255780636c376cc51461093b5780636cbc3f6b14610950578063700bb1911461097057806370a082311461099057806370e50241146109c657600080fd5b80635e470c9b116103915780635e470c9b146108845780635fd65fea146108a457806364b0f653146108ba57806365b8dbc0146108cf5780636843cd84146108ef57806369730c6c1461090f57600080fd5b806347c484e9146107e557806349bd5a5e146108055780634e71d92d146108395780635aa821a91461084e5780635c38ffe21461086457600080fd5b806322bd3f7f1161047157806330bb4cff1161042a57806330bb4cff1461072d578063313ce56714610742578063339826b0146107645780633884f3641461078457806339509351146107a55780633b364da8146107c557600080fd5b806322bd3f7f1461068157806323b872dd14610697578063263b5fcb146106b757806327c8f835146106d75780632c1f5216146106f757806330ad770a1461071757600080fd5b806309c58fcd116104c357806309c58fcd146105bd57806311f25b9b146105de57806313114a9d146105fe5780631694505e146106145780631719f1331461064c57806318160ddd1461066c57600080fd5b806302259e9e1461050b578063040048161461053457806306fdde031461055657806307f244d914610578578063095ea7b31461058d57600080fd5b3661050657005b600080fd5b34801561051757600080fd5b50610521600f5481565b6040519081526020015b60405180910390f35b34801561054057600080fd5b5061055461054f3660046149f6565b611070565b005b34801561056257600080fd5b5061056b611121565b60405161052b9190614b45565b34801561058457600080fd5b506105216111b3565b34801561059957600080fd5b506105ad6105a8366004614913565b61124e565b604051901515815260200161052b565b3480156105c957600080fd5b50600b546105ad9060a860020a900460ff1681565b3480156105ea57600080fd5b506105546105f93660046149f6565b611265565b34801561060a57600080fd5b50610521601b5481565b34801561062057600080fd5b5060095461063490600160a060020a031681565b604051600160a060020a03909116815260200161052b565b34801561065857600080fd5b506105546106673660046149be565b611297565b34801561067857600080fd5b50600254610521565b34801561068d57600080fd5b50610521601c5481565b3480156106a357600080fd5b506105ad6106b236600461483d565b611391565b3480156106c357600080fd5b506105546106d23660046149be565b6113fa565b3480156106e357600080fd5b50600b5461063490600160a060020a031681565b34801561070357600080fd5b50600c5461063490600160a060020a031681565b34801561072357600080fd5b5061052160155481565b34801561073957600080fd5b506105216114e1565b34801561074e57600080fd5b5060055460405160ff909116815260200161052b565b34801561077057600080fd5b5061055461077f3660046149f6565b61153f565b34801561079057600080fd5b50600b546105ad9060b860020a900460ff1681565b3480156107b157600080fd5b506105ad6107c0366004614913565b6115c4565b3480156107d157600080fd5b506105546107e03660046149f6565b6115fa565b3480156107f157600080fd5b506105546108003660046147cd565b611671565b34801561081157600080fd5b506106347f000000000000000000000000000000000000000000000000000000000000000081565b34801561084557600080fd5b506105546116e9565b34801561085a57600080fd5b50610521600e5481565b34801561087057600080fd5b5061055461087f3660046149f6565b611789565b34801561089057600080fd5b5061055461089f3660046149f6565b6117ce565b3480156108b057600080fd5b5061052160185481565b3480156108c657600080fd5b506105216118d7565b3480156108db57600080fd5b506105546108ea3660046147cd565b611935565b3480156108fb57600080fd5b5061052161090a3660046147cd565b6119cc565b34801561091b57600080fd5b5061052160165481565b34801561093157600080fd5b5061052160175481565b34801561094757600080fd5b50610554611a64565b34801561095c57600080fd5b5061055461096b3660046149be565b611ab2565b34801561097c57600080fd5b5061055461098b3660046149f6565b611b12565b34801561099c57600080fd5b506105216109ab3660046147cd565b600160a060020a031660009081526020819052604090205490565b3480156109d257600080fd5b5061052160125481565b3480156109e857600080fd5b50610554611c36565b3480156109fd57600080fd5b50600d5461063490600160a060020a031681565b348015610a1d57600080fd5b50600b546105ad9060c060020a900460ff1681565b348015610a3e57600080fd5b506105ad610a4d3660046147cd565b600160a060020a03166000908152601e602052604090205460ff1690565b348015610a7757600080fd5b50600b546105ad907a010000000000000000000000000000000000000000000000000000900460ff1681565b348015610aaf57600080fd5b50610554610abe366004614913565b611cc0565b348015610acf57600080fd5b50610521611dfb565b348015610ae457600080fd5b50610554610af33660046149f6565b611e59565b348015610b0457600080fd5b50610554610b133660046147cd565b611ebb565b348015610b2457600080fd5b506105546121ad565b348015610b3957600080fd5b506005546101009004600160a060020a0316610634565b348015610b5c57600080fd5b50610554610b6b3660046149f6565b612201565b348015610b7c57600080fd5b50610521601981565b348015610b9157600080fd5b5061052160195481565b348015610ba757600080fd5b50610554610bb63660046147cd565b612246565b348015610bc757600080fd5b5061056b6122e2565b348015610bdc57600080fd5b50610554610beb3660046149f6565b6122f1565b348015610bfc57600080fd5b50610554610c0b366004614a53565b612376565b348015610c1c57600080fd5b50610554610c2b36600461487d565b6123ec565b348015610c3c57600080fd5b50610521601d5481565b348015610c5257600080fd5b506105216124a8565b348015610c6757600080fd5b506105ad610c76366004614913565b612506565b348015610c8757600080fd5b50610521610c963660046147cd565b612555565b348015610ca757600080fd5b506105ad610cb6366004614913565b6125a1565b348015610cc757600080fd5b50610554610cd63660046147cd565b6125ae565b348015610ce757600080fd5b50610cfb610cf63660046147cd565b61264f565b60408051600160a060020a0390991689526020890197909752958701949094526060860192909252608085015260a084015260c083015260e08201526101000161052b565b348015610d4c57600080fd5b50610554610d5b366004614a53565b612712565b348015610d6c57600080fd5b50610554610d7b3660046149f6565b612782565b348015610d8c57600080fd5b50610554610d9b3660046147cd565b6127c7565b348015610dac57600080fd5b50610554610dbb3660046149f6565b612829565b348015610dcc57600080fd5b506105ad610ddb3660046147cd565b601f6020526000908152604090205460ff1681565b348015610dfc57600080fd5b50610554610e0b36600461487d565b61286e565b348015610e1c57600080fd5b50610554610e2b36600461493e565b61296c565b348015610e3c57600080fd5b50610554610e4b3660046149be565b612a5c565b348015610e5c57600080fd5b50610521601a5481565b348015610e7257600080fd5b5061052160135481565b348015610e8857600080fd5b50610554610e973660046149be565b612ad5565b348015610ea857600080fd5b50610554610eb7366004614a53565b612bbe565b348015610ec857600080fd5b5061052160145481565b348015610ede57600080fd5b50610554610eed3660046149f6565b612c2e565b348015610efe57600080fd5b50610521610f0d366004614805565b600160a060020a03918216600090815260016020908152604080832093909416825291909152205490565b348015610f4457600080fd5b5061052160105481565b348015610f5a57600080fd5b5061052160115481565b348015610f7057600080fd5b50600b546105ad9060b060020a900460ff1681565b348015610f9157600080fd5b50610554612cf2565b348015610fa657600080fd5b50610554610fb53660046149f6565b612d68565b348015610fc657600080fd5b50610cfb610fd53660046149f6565b612ddf565b348015610fe657600080fd5b50610554610ff53660046147cd565b612e3a565b34801561100657600080fd5b50600a5461063490600160a060020a031681565b34801561102657600080fd5b506105546110353660046149f6565b612f5a565b34801561104657600080fd5b50600b546105ad9060c860020a900460ff1681565b34801561106757600080fd5b50610521600181565b600854600160a060020a031633146110a65760405160e560020a62461bcd02815260040161109d90614c06565b60405180910390fd5b600c546040517fbd0a238100000000000000000000000000000000000000000000000000000000815260048101839052600160a060020a039091169063bd0a2381906024015b600060405180830381600087803b15801561110657600080fd5b505af115801561111a573d6000803e3d6000fd5b5050505050565b60606003805461113090614d38565b80601f016020809104026020016040519081016040528092919081815260200182805461115c90614d38565b80156111a95780601f1061117e576101008083540402835291602001916111a9565b820191906000526020600020905b81548152906001019060200180831161118c57829003601f168201915b5050505050905090565b600c54604080517fe7841ec00000000000000000000000000000000000000000000000000000000081529051600092600160a060020a03169163e7841ec0916004808301926020929190829003018186803b15801561121157600080fd5b505afa158015611225573d6000803e3d6000fd5b505050506040513d601f19601f820116820180604052508101906112499190614a0e565b905090565b600061125b338484612ff5565b5060015b92915050565b600854600160a060020a031633146112925760405160e560020a62461bcd02815260040161109d90614c06565b601355565b600854600160a060020a031633146112c45760405160e560020a62461bcd02815260040161109d90614c06565b80611306576015805460165560009055600b805479ff00000000000000000000000000000000000000000000000000191660c860020a83151502179055611358565b60165460158190556019546017546113279261132191612f8c565b90612f8c565b601b55600b805479ff00000000000000000000000000000000000000000000000000191660c860020a831515021790555b60405181151581527f60b3c0ab6915c299c3db3bde63c025e27e233edbee85be0a15c6cbae8c6338fa906020015b60405180910390a150565b600061139e8484846130a9565b6113f084336113eb85604051806060016040528060288152602001614dce60289139600160a060020a038a1660009081526001602090815260408083203384529091529020549190613830565b612ff5565b5060019392505050565b600854600160a060020a031633146114275760405160e560020a62461bcd02815260040161109d90614c06565b80611466576017805460185560009055600b805476ff00000000000000000000000000000000000000000000191660b060020a831515021790556114af565b60185460178190556019546015546114819261132191612f8c565b601b55600b805476ff00000000000000000000000000000000000000000000191660b060020a831515021790555b60405181151581527f6ba6c1012539169f5a820a29533d8c8b797a1c7a5634edbd3124a80de0e75cba90602001611386565b600c54604080517f85a6b3ae0000000000000000000000000000000000000000000000000000000081529051600092600160a060020a0316916385a6b3ae916004808301926020929190829003018186803b15801561121157600080fd5b600854600160a060020a0316331461156c5760405160e560020a62461bcd02815260040161109d90614c06565b600081116115bf5760405160e560020a62461bcd02815260206004820152600f60248201527f6e6577416d6f756e74206572726f720000000000000000000000000000000000604482015260640161109d565b601455565b336000818152600160209081526040808320600160a060020a0387168452909152812054909161125b9185906113eb9086612f8c565b600854600160a060020a031633146116275760405160e560020a62461bcd02815260040161109d90614c06565b600c546040517f0dcb2e8900000000000000000000000000000000000000000000000000000000815260048101839052600160a060020a0390911690630dcb2e89906024016110ec565b600854600160a060020a0316331461169e5760405160e560020a62461bcd02815260040161109d90614c06565b600c546040517f47c484e9000000000000000000000000000000000000000000000000000000008152600160a060020a038381166004830152909116906347c484e9906024016110ec565b600c546040517fbc4c4b3700000000000000000000000000000000000000000000000000000000815233600482015260006024820152600160a060020a039091169063bc4c4b3790604401602060405180830381600087803b15801561174e57600080fd5b505af1158015611762573d6000803e3d6000fd5b505050506040513d601f19601f8201168201806040525081019061178691906149da565b50565b600854600160a060020a031633146117b65760405160e560020a62461bcd02815260040161109d90614c06565b6117c881670de0b6b3a7640000614d02565b600f5550565b600854600160a060020a031633146117fb5760405160e560020a62461bcd02815260040161109d90614c06565b600b5430319060b860020a900460ff1661185a5760405160e560020a62461bcd02815260206004820152600b60248201527f6e6f7420656e61626c6564000000000000000000000000000000000000000000604482015260640161109d565b6013546118679083612f8c565b8110156118b95760405160e560020a62461bcd02815260206004820152601160248201527f616d6f756e7420697320746f6f20626967000000000000000000000000000000604482015260640161109d565b600b5460a060020a900460ff166118d3576118d38261386a565b5050565b600c54604080517f09bbedde0000000000000000000000000000000000000000000000000000000081529051600092600160a060020a0316916309bbedde916004808301926020929190829003018186803b15801561121157600080fd5b600854600160a060020a031633146119625760405160e560020a62461bcd02815260040161109d90614c06565b600954604051600160a060020a03918216918316907f8fc842bbd331dfa973645f4ed48b11683d501ebf1352708d77a5da2ab49a576e90600090a36009805473ffffffffffffffffffffffffffffffffffffffff1916600160a060020a0392909216919091179055565b600c546040517f70a08231000000000000000000000000000000000000000000000000000000008152600160a060020a03838116600483015260009216906370a08231906024015b60206040518083038186803b158015611a2c57600080fd5b505afa158015611a40573d6000803e3d6000fd5b505050506040513d601f19601f8201168201806040525081019061125f9190614a0e565b600854600160a060020a03163314611a915760405160e560020a62461bcd02815260040161109d90614c06565b600b805475ff00000000000000000000000000000000000000000019169055565b600854600160a060020a03163314611adf5760405160e560020a62461bcd02815260040161109d90614c06565b600b805491151560c060020a0278ff00000000000000000000000000000000000000000000000019909216919091179055565b600854600160a060020a03163314611b3f5760405160e560020a62461bcd02815260040161109d90614c06565b600c546040517fffb2c4790000000000000000000000000000000000000000000000000000000081526004810183905260009182918291600160a060020a03169063ffb2c47990602401606060405180830381600087803b158015611ba357600080fd5b505af1158015611bb7573d6000803e3d6000fd5b505050506040513d601f19601f82011682018060405250810190611bdb9190614a26565b604080518481526020810184905290810182905260608101889052929550909350915032906000907fc864333d6121033635ab41b29ae52f10a22cf4438c3e4f1c4c68518feb2f8a989060800160405180910390a350505050565b600854600160a060020a03163314611c635760405160e560020a62461bcd02815260040161109d90614c06565b6005546040516000916101009004600160a060020a0316907f8be0079c531659141344cd1fd0a4f28419497f9722a3daafe3b4186f6b6457e0908390a36005805474ffffffffffffffffffffffffffffffffffffffff0019169055565b600854600160a060020a03163314611ced5760405160e560020a62461bcd02815260040161109d90614c06565b600554600160a060020a03838116610100909204161415611d785760405160e560020a62461bcd028152602060048201526024808201527f41544f4d3a3a20726563697069656e742063616e2774206f776e65722061646460448201527f7265737300000000000000000000000000000000000000000000000000000000606482015260840161109d565b60008111611df15760405160e560020a62461bcd02815260206004820152602660248201527f41544f4d3a3a416d6f756e74206d75732062652067726561746865722074686160448201527f6e207a65726f0000000000000000000000000000000000000000000000000000606482015260840161109d565b6118d38282613a54565b600c54604080517f85552f600000000000000000000000000000000000000000000000000000000081529051600092600160a060020a0316916385552f60916004808301926020929190829003018186803b15801561121157600080fd5b600854600160a060020a03163314611e865760405160e560020a62461bcd02815260040161109d90614c06565b601d819055604051819081907f40d7e40e79af4e8e5a9b3c57030d8ea93f13d669c06d448c4d631d4ae7d23db790600090a350565b600854600160a060020a03163314611ee85760405160e560020a62461bcd02815260040161109d90614c06565b600081905030600160a060020a031681600160a060020a0316638da5cb5b6040518163ffffffff1660e060020a02815260040160206040518083038186803b158015611f3357600080fd5b505afa158015611f47573d6000803e3d6000fd5b505050506040513d601f19601f82011682018060405250810190611f6b91906147e9565b600160a060020a031614611fc45760405160e560020a62461bcd02815260206004820152601860248201527f6d757374206265206f776e6564206279205468756e6465720000000000000000604482015260640161109d565b60405160e460020a63031e79db028152600160a060020a03821660048201819052906331e79db090602401600060405180830381600087803b15801561200957600080fd5b505af115801561201d573d6000803e3d6000fd5b505060405160e460020a63031e79db028152306004820152600160a060020a03841692506331e79db09150602401600060405180830381600087803b15801561206557600080fd5b505af1158015612079573d6000803e3d6000fd5b505060095460405160e460020a63031e79db028152600160a060020a03918216600482015290841692506331e79db09150602401600060405180830381600087803b1580156120c757600080fd5b505af11580156120db573d6000803e3d6000fd5b5050600b5460405160e460020a63031e79db028152600160a060020a03918216600482015290841692506331e79db09150602401600060405180830381600087803b15801561212957600080fd5b505af115801561213d573d6000803e3d6000fd5b5050600c54604051600160a060020a03918216935090851691507f90c7d74461c613da5efa97d90740869367d74ab3aa5837aa4ae9a975f954b7a890600090a3600c805473ffffffffffffffffffffffffffffffffffffffff1916600160a060020a039290921691909117905550565b600854600160a060020a031633146121da5760405160e560020a62461bcd02815260040161109d90614c06565b600b805475ff000000000000000000000000000000000000000000191660a860020a179055565b600854600160a060020a0316331461222e5760405160e560020a62461bcd02815260040161109d90614c06565b61224081670de0b6b3a7640000614d02565b60115550565b600854600160a060020a031633146122735760405160e560020a62461bcd02815260040161109d90614c06565b600a805473ffffffffffffffffffffffffffffffffffffffff1916600160a060020a03838116918217909255600c546040517f7e3e7fd2000000000000000000000000000000000000000000000000000000008152600481019290925290911690637e3e7fd2906024016110ec565b60606004805461113090614d38565b600854600160a060020a0316331461231e5760405160e560020a62461bcd02815260040161109d90614c06565b600081116123715760405160e560020a62461bcd02815260206004820152601260248201527f6275794261636b4c696d6974206572726f720000000000000000000000000000604482015260640161109d565b601255565b600854600160a060020a031633146123a35760405160e560020a62461bcd02815260040161109d90614c06565b60198160ff1611156123ca5760405160e560020a62461bcd02815260040161109d90614bcf565b60ff811660198190556017546015546123e69261132191612f8c565b601b5550565b600854600160a060020a031633146124195760405160e560020a62461bcd02815260040161109d90614c06565b7f0000000000000000000000000000000000000000000000000000000000000000600160a060020a031682600160a060020a0316141561249e5760405160e560020a62461bcd02815260206004820152601160248201527f63616e6e6f742062652072656d6f766564000000000000000000000000000000604482015260640161109d565b6118d38282613b35565b600c54604080517f6f2789ec0000000000000000000000000000000000000000000000000000000081529051600092600160a060020a031691636f2789ec916004808301926020929190829003018186803b15801561121157600080fd5b600061125b33846113eb85604051806060016040528060258152602001614df660259139336000908152600160209081526040808320600160a060020a038d1684529091529020549190613830565b600c546040517fa8b9d240000000000000000000000000000000000000000000000000000000008152600160a060020a038381166004830152600092169063a8b9d24090602401611a14565b600061125b3384846130a9565b600854600160a060020a031633146125db5760405160e560020a62461bcd02815260040161109d90614c06565b6125e681600161286e565b600d54604051600160a060020a038084169216907f8616c7a330e3cf61290821331585511f1e2778171e2b005fb5ec60cfe874dc6790600090a3600d805473ffffffffffffffffffffffffffffffffffffffff1916600160a060020a0392909216919091179055565b600c546040517ffbcbc0f1000000000000000000000000000000000000000000000000000000008152600160a060020a038381166004830152600092839283928392839283928392839291169063fbcbc0f1906024015b6101006040518083038186803b1580156126bf57600080fd5b505afa1580156126d3573d6000803e3d6000fd5b505050506040513d601f19601f820116820180604052508101906126f791906148aa565b97509750975097509750975097509750919395975091939597565b600854600160a060020a0316331461273f5760405160e560020a62461bcd02815260040161109d90614c06565b60198160ff1611156127665760405160e560020a62461bcd02815260040161109d90614bcf565b60ff811660158190556019546017546123e69261132191612f8c565b600854600160a060020a031633146127af5760405160e560020a62461bcd02815260040161109d90614c06565b6127c181670de0b6b3a7640000614d02565b60105550565b600854600160a060020a031633146127f45760405160e560020a62461bcd02815260040161109d90614c06565b600c5460405160e460020a63031e79db028152600160a060020a038381166004830152909116906331e79db0906024016110ec565b600854600160a060020a031633146128565760405160e560020a62461bcd02815260040161109d90614c06565b61286881670de0b6b3a7640000614d02565b600e5550565b600854600160a060020a0316331461289b5760405160e560020a62461bcd02815260040161109d90614c06565b600160a060020a0382166000908152601e602052604090205460ff161515811515141561290d5760405160e560020a62461bcd02815260206004820152601060248201527f416c7265616479206578636c7564656400000000000000000000000000000000604482015260640161109d565b600160a060020a0382166000818152601e6020908152604091829020805460ff191685151590811790915591519182527f9d8f7706ea1113d1a167b526eca956215946dd36cc7df39eb16180222d8b5df7910160405180910390a25050565b600854600160a060020a031633146129995760405160e560020a62461bcd02815260040161109d90614c06565b60005b82811015612a1b5781601e60008686858181106129cc5760e060020a634e487b7102600052603260045260246000fd5b90506020020160208101906129e191906147cd565b600160a060020a031681526020810191909152604001600020805460ff191691151591909117905580612a1381614d76565b91505061299c565b507f7fdaf542373fa84f4ee8d662c642f44e4c2276a217d7d29e548b6eb29a233b35838383604051612a4f93929190614ab7565b60405180910390a1505050565b600854600160a060020a03163314612a895760405160e560020a62461bcd02815260040161109d90614c06565b600b80549115157a010000000000000000000000000000000000000000000000000000027aff000000000000000000000000000000000000000000000000000019909216919091179055565b600854600160a060020a03163314612b025760405160e560020a62461bcd02815260040161109d90614c06565b80612b425760198054601a5560009055600b805477ff0000000000000000000000000000000000000000000000191660b860020a83151502179055612b8c565b601a546019819055601554601754612b5d9261132191612f8c565b601b55600b805477ff0000000000000000000000000000000000000000000000191660b860020a831515021790555b60405181151581527feeddd25ab572944f46f2e1d17c56bb44594bdf0b4696199da23db34f0bcf9b9a90602001611386565b600854600160a060020a03163314612beb5760405160e560020a62461bcd02815260040161109d90614c06565b60198160ff161115612c125760405160e560020a62461bcd02815260040161109d90614bcf565b60ff811660178190556019546015546123e69261132191612f8c565b600854600160a060020a03163314612c5b5760405160e560020a62461bcd02815260040161109d90614c06565b600580546006805473ffffffffffffffffffffffffffffffffffffffff1916600160a060020a0361010084041617905574ffffffffffffffffffffffffffffffffffffffff0019169055612caf8142614cc7565b6007556005546040516000916101009004600160a060020a0316907f8be0079c531659141344cd1fd0a4f28419497f9722a3daafe3b4186f6b6457e0908390a350565b600854600160a060020a03163314612d1f5760405160e560020a62461bcd02815260040161109d90614c06565b6005546101009004600160a060020a0316604051600160a060020a039190911690303180156108fc02916000818181858888f19350505050158015611786573d6000803e3d6000fd5b600854600160a060020a03163314612d955760405160e560020a62461bcd02815260040161109d90614c06565b600c546040517fe98030c700000000000000000000000000000000000000000000000000000000815260048101839052600160a060020a039091169063e98030c7906024016110ec565b600c546040517f5183d6fd000000000000000000000000000000000000000000000000000000008152600481018390526000918291829182918291829182918291600160a060020a0390911690635183d6fd906024016126a6565b600854600160a060020a03163314612e675760405160e560020a62461bcd02815260040161109d90614c06565b600160a060020a038116612ee65760405160e560020a62461bcd02815260206004820152602660248201527f4f776e61626c653a206e6577206f776e657220697320746865207a65726f206160448201527f6464726573730000000000000000000000000000000000000000000000000000606482015260840161109d565b600554604051600160a060020a0380841692610100900416907f8be0079c531659141344cd1fd0a4f28419497f9722a3daafe3b4186f6b6457e090600090a360058054600160a060020a039092166101000274ffffffffffffffffffffffffffffffffffffffff0019909216919091179055565b600854600160a060020a03163314612f875760405160e560020a62461bcd02815260040161109d90614c06565b601c55565b600080612f998385614cc7565b905083811015612fee5760405160e560020a62461bcd02815260206004820152601b60248201527f536166654d6174683a206164646974696f6e206f766572666c6f770000000000604482015260640161109d565b9392505050565b600160a060020a03831661301e5760405160e560020a62461bcd02815260040161109d90614c3b565b600160a060020a0382166130475760405160e560020a62461bcd02815260040161109d90614c3b565b600160a060020a0383811660008181526001602090815260408083209487168084529482529182902085905590518481527f8c5be1e5ebec7d5bd14f71427d1e84f3dd0314c0f7b2291e5b200ac8c7c3b92591015b60405180910390a3505050565b600160a060020a0383166130d25760405160e560020a62461bcd02815260040161109d90614c3b565b600160a060020a0382166130fb5760405160e560020a62461bcd02815260040161109d90614c3b565b600b5460a860020a900460ff168061314d5750600160a060020a0383166000908152601e602052604090205460ff168061314d5750600160a060020a0382166000908152601e602052604090205460ff165b61319c5760405160e560020a62461bcd02815260206004820152601360248201527f54726164696e67206e6f74207374617274656400000000000000000000000000604482015260640161109d565b600160a060020a0383166000908152601e602052604081205460ff16806131db5750600160a060020a0383166000908152601e602052604090205460ff165b600b5490915060a860020a900460ff16801561320f5750600160a060020a0384166000908152601f602052604090205460ff165b8015613219575080155b1561329057600e548211156132435760405160e560020a62461bcd02815260040161109d90614b98565b600160a060020a0383166000908152602081905260409020546011546132698483614cc7565b111561328a5760405160e560020a62461bcd02815260040161109d90614b98565b5061353c565b600b5460a860020a900460ff1680156132c15750600160a060020a0383166000908152601f602052604090205460ff165b80156132cb575080155b1561353c57600f548211156132f55760405160e560020a62461bcd02815260040161109d90614b98565b30600090815260208190526040902054600b5460a060020a900460ff1615801561332157506010548110155b1561347a57600b805474ff0000000000000000000000000000000000000000191660a060020a179081905560b060020a900460ff16156133a557600061337e601754613378601b5485613c2e90919063ffffffff16565b90613c8c565b905061338981613d2a565b600d543031906133a290600160a060020a031682613ee7565b50505b600b5460b860020a900460ff161561341457600b5460c060020a900460ff16156133f1576133ec6133e7601954613378601b5485613c2e90919063ffffffff16565b613d2a565b613414565b61341461340f601954613378601b5485613c2e90919063ffffffff16565b613f22565b600b5460c860020a900460ff161561345b576000613443601554613378601b5485613c2e90919063ffffffff16565b905061345961345482610514613fac565b61400b565b505b600b805474ff0000000000000000000000000000000000000000191690555b600b5460a060020a900460ff1615801561349d5750600b5460b860020a900460ff165b80156134b25750600b5460c060020a900460ff165b1561353a5760135430319081108015906134ce57506014548410155b1561353857600b805474ff0000000000000000000000000000000000000000191660a060020a17905560125481111561350657506012545b613519613514826064613c2e565b61386a565b600b805474ff0000000000000000000000000000000000000000191690555b505b505b600b5460a860020a900460ff16801561355f5750600b5460a060020a900460ff16155b8015613569575080155b156135d557601b5460009061358390613378856064613c2e565b600160a060020a0385166000908152601f602052604090205490915060ff16156135bc57601c546135b990613378836064613c2e565b90505b6135c68382613fac565b92506135d38530836140da565b505b6135e08484846140da565b600c54600160a060020a031663e30443bc8561361181600160a060020a031660009081526020819052604090205490565b60405160e060020a63ffffffff8516028152600160a060020a0390921660048301526024820152604401600060405180830381600087803b15801561365557600080fd5b505af1925050508015613666575060015b50600c54600160a060020a031663e30443bc8461369881600160a060020a031660009081526020819052604090205490565b60405160e060020a63ffffffff8516028152600160a060020a0390921660048301526024820152604401600060405180830381600087803b1580156136dc57600080fd5b505af19250505080156136ed575060015b50600b5460a060020a900460ff1661382a57601d54600b5460c860020a900460ff16801561373b5750600b547a010000000000000000000000000000000000000000000000000000900460ff165b1561111a57600c546040517fffb2c47900000000000000000000000000000000000000000000000000000000815260048101839052600160a060020a039091169063ffb2c47990602401606060405180830381600087803b15801561379f57600080fd5b505af19250505080156137cf575060408051601f3d908101601f191682019092526137cc91810190614a26565b60015b6137d85761111a565b60408051848152602081018490529081018290526060810185905232906001907fc864333d6121033635ab41b29ae52f10a22cf4438c3e4f1c4c68518feb2f8a989060800160405180910390a3505050505b50505050565b600081848411156138575760405160e560020a62461bcd02815260040161109d9190614b45565b506138628385614d21565b949350505050565b6040805160028082526060820183526000926020830190803683375050600954604080517fad5c46480000000000000000000000000000000000000000000000000000000081529051939450600160a060020a039091169263ad5c464892506004808301926020929190829003018186803b1580156138e857600080fd5b505afa1580156138fc573d6000803e3d6000fd5b505050506040513d601f19601f8201168201806040525081019061392091906147e9565b816000815181106139445760e060020a634e487b7102600052603260045260246000fd5b6020026020010190600160a060020a03169081600160a060020a03168152505030816001815181106139895760e060020a634e487b7102600052603260045260246000fd5b600160a060020a039283166020918202929092010152600954600d549082169163b6f9de959185916000918691166139c34261012c612f8c565b6040518663ffffffff1660e060020a0281526004016139e59493929190614b10565b6000604051808303818588803b1580156139fe57600080fd5b505af1158015613a12573d6000803e3d6000fd5b50505050507fd4684ad2fbc99eb9a37fb6a643ff03da7f36ccddb2a5ed63ce1299b02df1a9378282604051613a48929190614c72565b60405180910390a15050565b600160a060020a038216613aad5760405160e560020a62461bcd02815260206004820152601f60248201527f45524332303a206d696e7420746f20746865207a65726f206164647265737300604482015260640161109d565b600254613aba9082612f8c565b600255600160a060020a038216600090815260208190526040902054613ae09082612f8c565b600160a060020a038316600081815260208181526040808320949094559251848152919290917fddf252ad1be2c89b69c2b068fc378daa952ba7f163c4a11628f55a4df523b3ef910160405180910390a35050565b600854600160a060020a03163314613b625760405160e560020a62461bcd02815260040161109d90614c06565b600160a060020a0382166000908152601f60205260409020805460ff19168215801591909117909155613bf257600c5460405160e460020a63031e79db028152600160a060020a038481166004830152909116906331e79db090602401600060405180830381600087803b158015613bd957600080fd5b505af1158015613bed573d6000803e3d6000fd5b505050505b60405181151590600160a060020a038416907fffa9187bf1f18bf477bd0ea1bcbb64e93b6a98132473929edfce215cd9b16fab90600090a35050565b6000808211613c825760405160e560020a62461bcd02815260206004820152601a60248201527f536166654d6174683a206469766973696f6e206279207a65726f000000000000604482015260640161109d565b612fee8284614cdf565b600082613c9b5750600061125f565b6000613ca78385614d02565b905082613cb48583614cdf565b14612fee5760405160e560020a62461bcd02815260206004820152602160248201527f536166654d6174683a206d756c7469706c69636174696f6e206f766572666c6f60448201527f7700000000000000000000000000000000000000000000000000000000000000606482015260840161109d565b6040805160028082526060820183526000926020830190803683370190505090503081600081518110613d705760e060020a634e487b7102600052603260045260246000fd5b600160a060020a03928316602091820292909201810191909152600954604080517fad5c46480000000000000000000000000000000000000000000000000000000081529051919093169263ad5c4648926004808301939192829003018186803b158015613ddd57600080fd5b505afa158015613df1573d6000803e3d6000fd5b505050506040513d601f19601f82011682018060405250810190613e1591906147e9565b81600181518110613e395760e060020a634e487b7102600052603260045260246000fd5b600160a060020a039283166020918202929092010152600954613e5f9130911684612ff5565b6009546040517f791ac947000000000000000000000000000000000000000000000000000000008152600160a060020a039091169063791ac94790613eb1908590600090869030904290600401614c8b565b600060405180830381600087803b158015613ecb57600080fd5b505af1158015613edf573d6000803e3d6000fd5b505050505050565b604051600160a060020a0383169082156108fc029083906000818181858888f19350505050158015613f1d573d6000803e3d6000fd5b505050565b6000613f2f826002613c2e565b90506000613f3d8383613fac565b90503031613f4a83613d2a565b6000613f57303183613fac565b9050613f638382614206565b60408051858152602081018390529081018490527f17bbfb9a6069321b6ded73bd96327c9e6b7212a5cd51ff219cd61370acafb561906060015b60405180910390a15050505050565b6000828211156140015760405160e560020a62461bcd02815260206004820152601e60248201527f536166654d6174683a207375627472616374696f6e206f766572666c6f770000604482015260640161109d565b612fee8284614d21565b600a546140249082903090600160a060020a03166142db565b600a546040517f70a08231000000000000000000000000000000000000000000000000000000008152306004820152600091600160a060020a0316906370a082319060240160206040518083038186803b15801561408157600080fd5b505afa158015614095573d6000803e3d6000fd5b505050506040513d601f19601f820116820180604052508101906140b99190614a0e565b600a54600c549192506118d391600160a060020a0391821691168084614682565b600160a060020a0383166141035760405160e560020a62461bcd02815260040161109d90614c3b565b600160a060020a03821661412c5760405160e560020a62461bcd02815260040161109d90614c3b565b604080518082018252600f81527f657863656564732062616c616e63650000000000000000000000000000000000602080830191909152600160a060020a0386166000908152908190529190912054614186918390613830565b600160a060020a0380851660009081526020819052604080822093909355908416815220546141b59082612f8c565b600160a060020a038381166000818152602081815260409182902094909455518481529092918616917fddf252ad1be2c89b69c2b068fc378daa952ba7f163c4a11628f55a4df523b3ef910161309c565b60095461421e903090600160a060020a031684612ff5565b600954600d546040517ff305d719000000000000000000000000000000000000000000000000000000008152306004820152602481018590526000604482018190526064820152600160a060020a0391821660848201524260a482015291169063f305d71990839060c4016060604051808303818588803b1580156142a257600080fd5b505af11580156142b6573d6000803e3d6000fd5b50505050506040513d601f19601f8201168201806040525081019061111a9190614a26565b600960009054906101000a9004600160a060020a0316600160a060020a031663ad5c46486040518163ffffffff1660e060020a02815260040160206040518083038186803b15801561432c57600080fd5b505afa158015614340573d6000803e3d6000fd5b505050506040513d601f19601f8201168201806040525081019061436491906147e9565b600160a060020a031681600160a060020a03161461458257604080516003808252608082019092526000916020820160608036833701905050905030816000815181106143c45760e060020a634e487b7102600052603260045260246000fd5b600160a060020a03928316602091820292909201810191909152600954604080517fad5c46480000000000000000000000000000000000000000000000000000000081529051919093169263ad5c4648926004808301939192829003018186803b15801561443157600080fd5b505afa158015614445573d6000803e3d6000fd5b505050506040513d601f19601f8201168201806040525081019061446991906147e9565b8160018151811061448d5760e060020a634e487b7102600052603260045260246000fd5b6020026020010190600160a060020a03169081600160a060020a03168152505081816002815181106144d25760e060020a634e487b7102600052603260045260246000fd5b600160a060020a0392831660209182029290920101526009546144f89130911686612ff5565b6009546040517f5c11d795000000000000000000000000000000000000000000000000000000008152600160a060020a0390911690635c11d7959061454a908790600090869089904290600401614c8b565b600060405180830381600087803b15801561456457600080fd5b505af1158015614578573d6000803e3d6000fd5b5050505050505050565b303161458d84613d2a565b600061459a303183613fac565b9050600960009054906101000a9004600160a060020a0316600160a060020a031663ad5c46486040518163ffffffff1660e060020a02815260040160206040518083038186803b1580156145ed57600080fd5b505afa158015614601573d6000803e3d6000fd5b505050506040513d601f19601f8201168201806040525081019061462591906147e9565b600160a060020a031663d0e30db0826040518263ffffffff1660e060020a0281526004016000604051808303818588803b15801561466257600080fd5b505af1158015614676573d6000803e3d6000fd5b50505050505050505050565b6040517fa9059cbb000000000000000000000000000000000000000000000000000000008152600160a060020a038481166004830152602482018390526000919086169063a9059cbb90604401602060405180830381600087803b1580156146e957600080fd5b505af11580156146fd573d6000803e3d6000fd5b505050506040513d601f19601f8201168201806040525081019061472191906149da565b9050801561111a576040517f3243c79100000000000000000000000000000000000000000000000000000000815260048101839052600160a060020a03841690633243c79190602401600060405180830381600087803b15801561478457600080fd5b505af1158015614798573d6000803e3d6000fd5b505050507fb0cc2628d6d644cf6be9d8110e142297ac910d6d8026d795a99f272fd9ad60b182604051613f9d91815260200190565b6000602082840312156147de578081fd5b8135612fee81614daa565b6000602082840312156147fa578081fd5b8151612fee81614daa565b60008060408385031215614817578081fd5b823561482281614daa565b9150602083013561483281614daa565b809150509250929050565b600080600060608486031215614851578081fd5b833561485c81614daa565b9250602084013561486c81614daa565b929592945050506040919091013590565b6000806040838503121561488f578182fd5b823561489a81614daa565b9150602083013561483281614dbf565b600080600080600080600080610100898b0312156148c6578384fd5b88516148d181614daa565b809850506020890151965060408901519550606089015194506080890151935060a0890151925060c0890151915060e089015190509295985092959890939650565b60008060408385031215614925578182fd5b823561493081614daa565b946020939093013593505050565b600080600060408486031215614952578283fd5b833567ffffffffffffffff80821115614969578485fd5b818601915086601f83011261497c578485fd5b81358181111561498a578586fd5b876020808302850101111561499d578586fd5b602092830195509350508401356149b381614dbf565b809150509250925092565b6000602082840312156149cf578081fd5b8135612fee81614dbf565b6000602082840312156149eb578081fd5b8151612fee81614dbf565b600060208284031215614a07578081fd5b5035919050565b600060208284031215614a1f578081fd5b5051919050565b600080600060608486031215614a3a578283fd5b8351925060208401519150604084015190509250925092565b600060208284031215614a64578081fd5b813560ff81168114612fee578182fd5b6000815180845260208085019450808401835b83811015614aac578151600160a060020a031687529582019590820190600101614a87565b509495945050505050565b6040808252810183905260008460608301825b86811015614afa578235614add81614daa565b600160a060020a0316825260209283019290910190600101614aca565b5080925050508215156020830152949350505050565b848152608060208201526000614b296080830186614a74565b600160a060020a03949094166040830152506060015292915050565b6000602080835283518082850152825b81811015614b7157858101830151858201604001528201614b55565b81811115614b825783604083870101525b50601f01601f1916929092016040019392505050565b6020808252600c908201527f4572726f7220616d6f756e740000000000000000000000000000000000000000604082015260600190565b60208082526005908201527f77726f6e67000000000000000000000000000000000000000000000000000000604082015260600190565b6020808252818101527f4f776e61626c653a2063616c6c6572206973206e6f7420746865206f776e6572604082015260600190565b6020808252600c908201527f7a65726f20616464726573730000000000000000000000000000000000000000604082015260600190565b8281526040602082015260006138626040830184614a74565b85815284602082015260a060408201526000614caa60a0830186614a74565b600160a060020a0394909416606083015250608001529392505050565b60008219821115614cda57614cda614d91565b500190565b600082614cfd5760e060020a634e487b710281526012600452602481fd5b500490565b6000816000190483118215151615614d1c57614d1c614d91565b500290565b600082821015614d3357614d33614d91565b500390565b600281046001821680614d4c57607f821691505b60208210811415614d705760e060020a634e487b7102600052602260045260246000fd5b50919050565b6000600019821415614d8a57614d8a614d91565b5060010190565b60e060020a634e487b7102600052601160045260246000fd5b600160a060020a038116811461178657600080fd5b801515811461178657600080fdfe45524332303a207472616e7366657220616d6f756e74206578636565647320616c6c6f77616e636545524332303a2064656372656173656420616c6c6f77616e63652062656c6f77207a65726fa264697066735822122080bdf250fd980e71646fbfae1fa17f4cfac4cdb56493e0c38cf365086276580d64736f6c63430008040033608060405260006009553480156200001657600080fd5b5060405162002b9c38038062002b9c83398101604081905262000039916200028b565b828282828281600390805190602001906200005692919062000132565b5080516200006c90600490602084019062000132565b50506005805460ff191660121790555060088054600160a060020a03909216600160a060020a03199092169190911790555060009050620000b56401000000006200012e810204565b600e8054600160a060020a038316600160a060020a031991821681179092556011805490911682179055604051919250906000907f8be0079c531659141344cd1fd0a4f28419497f9722a3daafe3b4186f6b6457e0908290a35050610e10601a5550506b033b2e3c9fd0803ce8000000601b5562000399565b3390565b828054620001409062000314565b90600052602060002090601f016020900481019282620001645760008555620001af565b82601f106200017f57805160ff1916838001178555620001af565b82800160010185558215620001af579182015b82811115620001af57825182559160200191906001019062000192565b50620001bd929150620001c1565b5090565b5b80821115620001bd5760008155600101620001c2565b600082601f830112620001e9578081fd5b81516001604060020a03808211156200020657620002066200036a565b604051601f8301601f19908116603f011681019082821181831017156200023157620002316200036a565b816040528381526020925086838588010111156200024d578485fd5b8491505b8382101562000270578582018301518183018401529082019062000251565b838211156200028157848385830101525b9695505050505050565b600080600060608486031215620002a0578283fd5b83516001604060020a0380821115620002b7578485fd5b620002c587838801620001d8565b94506020860151915080821115620002db578384fd5b50620002ea86828701620001d8565b60408601519093509050600160a060020a038116811462000309578182fd5b809150509250925092565b6002810460018216806200032957607f821691505b6020821081141562000364577f4e487b7100000000000000000000000000000000000000000000000000000000600052602260045260246000fd5b50919050565b7f4e487b7100000000000000000000000000000000000000000000000000000000600052604160045260246000fd5b6127f380620003a96000396000f3fe60806040526004361061029e576000357c0100000000000000000000000000000000000000000000000000000000900480637e3e7fd21161016c578063bb29578a116100de578063e30443bc11610097578063e30443bc1461081c578063e7841ec01461083c578063e98030c714610851578063f2fde38b14610871578063fbcbc0f114610891578063ffb2c479146108b157600080fd5b8063bb29578a14610740578063bc4c4b3714610760578063bd0a238114610780578063be10b614146107a0578063dd467064146107b6578063dd62ed3e146107d657600080fd5b8063938b5f3211610130578063938b5f321461067557806395d89b4114610695578063a457c2d7146106aa578063a8b9d240146106ca578063a9059cbb146106ea578063aafd847a1461070a57600080fd5b80637e3e7fd2146105eb57806385552f601461060b57806385a6b3ae146106215780638da5cb5b1461063757806391b89fba1461065557600080fd5b80633009a609116102105780634e7b827f116101c95780634e7b827f146104e05780635183d6fd146105105780636a474002146105755780636f2789ec1461058a57806370a08231146105a0578063715018a6146105d657600080fd5b80633009a60914610428578063313ce5671461043e57806331e79db0146104605780633243c7911461048057806339509351146104a057806347c484e9146104c057600080fd5b80631582358e116102625780631582358e1461034e57806318160ddd14610386578063226cfa3d1461039b57806323b872dd146103c857806327c2573b146103e857806327ce01471461040857600080fd5b806303c83302146102aa57806306fdde03146102b4578063095ea7b3146102df57806309bbedde1461030f5780630dcb2e891461032e57600080fd5b366102a557005b600080fd5b6102b26108ec565b005b3480156102c057600080fd5b506102c961098c565b6040516102d691906124c3565b60405180910390f35b3480156102eb57600080fd5b506102ff6102fa3660046123df565b610a1e565b60405190151581526020016102d6565b34801561031b57600080fd5b506012545b6040519081526020016102d6565b34801561033a57600080fd5b506102b26103493660046124ab565b610a35565b34801561035a57600080fd5b5060085461036e90600160a060020a031681565b604051600160a060020a0390911681526020016102d6565b34801561039257600080fd5b50600254610320565b3480156103a757600080fd5b506103206103b636600461236f565b60196020526000908152604090205481565b3480156103d457600080fd5b506102ff6103e3366004612437565b610a83565b3480156103f457600080fd5b506102b261040336600461240a565b610aec565b34801561041457600080fd5b5061032061042336600461236f565b610c52565b34801561043457600080fd5b5061032060165481565b34801561044a57600080fd5b5060055460405160ff90911681526020016102d6565b34801561046c57600080fd5b506102b261047b36600461236f565b610cbb565b34801561048c57600080fd5b506102b261049b3660046124ab565b610dfe565b3480156104ac57600080fd5b506102ff6104bb3660046123df565b610e8c565b3480156104cc57600080fd5b506102b26104db36600461236f565b610ec2565b3480156104ec57600080fd5b506102ff6104fb36600461236f565b60186020526000908152604090205460ff1681565b34801561051c57600080fd5b5061053061052b3660046124ab565b610f1e565b60408051600160a060020a0390991689526020890197909752958701949094526060860192909252608085015260a084015260c083015260e0820152610100016102d6565b34801561058157600080fd5b506102b26110c5565b34801561059657600080fd5b50610320601a5481565b3480156105ac57600080fd5b506103206105bb36600461236f565b600160a060020a031660009081526020819052604090205490565b3480156105e257600080fd5b506102b2611110565b3480156105f757600080fd5b506102b261060636600461236f565b611194565b34801561061757600080fd5b5061032060095481565b34801561062d57600080fd5b50610320600d5481565b34801561064357600080fd5b50600e54600160a060020a031661036e565b34801561066157600080fd5b5061032061067036600461236f565b6111f0565b34801561068157600080fd5b50600a5461036e90600160a060020a031681565b3480156106a157600080fd5b506102c96111fb565b3480156106b657600080fd5b506102ff6106c53660046123df565b61120a565b3480156106d657600080fd5b506103206106e536600461236f565b611259565b3480156106f657600080fd5b506102ff6107053660046123df565b611285565b34801561071657600080fd5b5061032061072536600461236f565b600160a060020a03166000908152600c602052604090205490565b34801561074c57600080fd5b506102b261075b36600461240a565b611292565b34801561076c57600080fd5b506102ff61077b3660046123a7565b6113ad565b34801561078c57600080fd5b506102b261079b3660046124ab565b61145e565b3480156107ac57600080fd5b50610320601b5481565b3480156107c257600080fd5b506102b26107d13660046124ab565b6114c0565b3480156107e257600080fd5b506103206107f136600461240a565b600160a060020a03918216600090815260016020908152604080832093909416825291909152205490565b34801561082857600080fd5b506102b26108373660046123df565b611567565b34801561084857600080fd5b50601654610320565b34801561085d57600080fd5b506102b261086c3660046124ab565b61170a565b34801561087d57600080fd5b506102b261088c36600461236f565b6117cd565b34801561089d57600080fd5b506105306108ac36600461236f565b6118e2565b3480156108bd57600080fd5b506108d16108cc3660046124ab565b611a73565b604080519384526020840192909252908201526060016102d6565b60006108f760025490565b1161090157600080fd5b341561098a5761094161091360025490565b61092e34700100000000000000000000000000000000611b9f565b610938919061260e565b60065490611c44565b60065560405134815233907fa493a9229478c3fcd73f66d2cdeb7f94fd0f341da924d1054236d784541165119060200160405180910390a2600d546109869034611c44565b600d555b565b60606003805461099b906126db565b80601f01602080910402602001604051908101604052809291908181526020018280546109c7906126db565b8015610a145780601f106109e957610100808354040283529160200191610a14565b820191906000526020600020905b8154815290600101906020018083116109f757829003601f168201915b5050505050905090565b6000610a2b338484611ca6565b5060015b92915050565b601154600160a060020a03163314610a6b5760405160e560020a62461bcd028152600401610a6290612516565b60405180910390fd5b610a7d81670de0b6b3a7640000612631565b601b5550565b6000610a90848484611d59565b610ae28433610add8560405180606001604052806028815260200161277160289139600160a060020a038a1660009081526001602090815260408083203384529091529020549190611da4565b611ca6565b5060019392505050565b601154600160a060020a03163314610b195760405160e560020a62461bcd028152600401610a6290612516565b6040517f70a08231000000000000000000000000000000000000000000000000000000008152600160a060020a038281166004830152600091908416906370a082319060240160206040518083038186803b158015610b7757600080fd5b505afa158015610b8b573d6000803e3d6000fd5b505050506040513d601f19601f82011682018060405250810190610baf9190612493565b6040517fa9059cbb00000000000000000000000000000000000000000000000000000000815233600482015260248101829052909150600160a060020a0384169063a9059cbb906044015b602060405180830381600087803b158015610c1457600080fd5b505af1158015610c28573d6000803e3d6000fd5b505050506040513d601f19601f82011682018060405250810190610c4c9190612477565b50505050565b600160a060020a0381166000908152600b60209081526040808320549183905282205460065470010000000000000000000000000000000092610cb192610cac92610ca691610ca19190611b9f565b611dde565b90611dee565b611e2c565b610a2f919061260e565b601154600160a060020a03163314610ce85760405160e560020a62461bcd028152600401610a6290612516565b600160a060020a03811660009081526018602052604090205460ff1615610d0e57600080fd5b600160a060020a0381166000908152601860205260408120805460ff19166001179055610d3c908290611e3f565b6040517f4c60db9c00000000000000000000000000000000000000000000000000000000815260126004820152600160a060020a038216602482015273231c7f5887213d951107ad2b6e8a6ccfe8ca6eef90634c60db9c9060440160006040518083038186803b158015610daf57600080fd5b505af4158015610dc3573d6000803e3d6000fd5b5050604051600160a060020a03841692507fa878b31040b2e6d0a9a3d3361209db3908ba62014b0dca52adbaee451d128b259150600090a250565b6000610e0960025490565b11610e1357600080fd5b8015610e8957610e40610e2560025490565b61092e83700100000000000000000000000000000000611b9f565b60065560405181815233907fa493a9229478c3fcd73f66d2cdeb7f94fd0f341da924d1054236d784541165119060200160405180910390a2600d54610e859082611c44565b600d555b50565b336000818152600160209081526040808320600160a060020a03871684529091528120549091610a2b918590610add9086611c44565b601154600160a060020a03163314610eef5760405160e560020a62461bcd028152600401610a6290612516565b600a805473ffffffffffffffffffffffffffffffffffffffff1916600160a060020a0392909216919091179055565b600080600080600080600080601273231c7f5887213d951107ad2b6e8a6ccfe8ca6eef63deb3d89690916040518263ffffffff167c0100000000000000000000000000000000000000000000000000000000028152600401610f8291815260200190565b60206040518083038186803b158015610f9a57600080fd5b505af4158015610fae573d6000803e3d6000fd5b505050506040513d601f19601f82011682018060405250810190610fd29190612493565b8910610ff75750600096506000199550859450869350839250829150819050806110ba565b6040517fd1aa9e7e00000000000000000000000000000000000000000000000000000000815260126004820152602481018a905260009073231c7f5887213d951107ad2b6e8a6ccfe8ca6eef9063d1aa9e7e9060440160206040518083038186803b15801561106557600080fd5b505af4158015611079573d6000803e3d6000fd5b505050506040513d601f19601f8201168201806040525081019061109d919061238b565b90506110a8816118e2565b98509850985098509850985098509850505b919395975091939597565b60405160e560020a62461bcd02815260206004820152600860248201527f64697361626c65640000000000000000000000000000000000000000000000006044820152606401610a62565b601154600160a060020a0316331461113d5760405160e560020a62461bcd028152600401610a6290612516565b600e54604051600091600160a060020a0316907f8be0079c531659141344cd1fd0a4f28419497f9722a3daafe3b4186f6b6457e0908390a3600e805473ffffffffffffffffffffffffffffffffffffffff19169055565b601154600160a060020a031633146111c15760405160e560020a62461bcd028152600401610a6290612516565b6008805473ffffffffffffffffffffffffffffffffffffffff1916600160a060020a0392909216919091179055565b6000610a2f82611259565b60606004805461099b906126db565b6000610a2b3384610add8560405180606001604052806025815260200161279960259139336000908152600160209081526040808320600160a060020a038d1684529091529020549190611da4565b600160a060020a0381166000908152600c6020526040812054610a2f9061127f84610c52565b90611e98565b6000610a2b338484611d59565b601154600160a060020a031633146112bf5760405160e560020a62461bcd028152600401610a6290612516565b6040517f70a08231000000000000000000000000000000000000000000000000000000008152600160a060020a038381166004830152600091908316906370a082319060240160206040518083038186803b15801561131d57600080fd5b505afa158015611331573d6000803e3d6000fd5b505050506040513d601f19601f820116820180604052508101906113559190612493565b6040517f23b872dd000000000000000000000000000000000000000000000000000000008152600160a060020a03858116600483015233602483015260448201839052919250908316906323b872dd90606401610bfa565b601154600090600160a060020a031633146113dd5760405160e560020a62461bcd028152600401610a6290612516565b60006113e884611ef7565b9050801561145457600160a060020a038416600081815260196020526040908190204290555184151591907fa2c38e2d2fb7e3e1912d937fd1ca11ed6d51864dee4cfa7a7bf02becd7acf092906114429085815260200190565b60405180910390a36001915050610a2f565b5060009392505050565b600a54600160a060020a031632146114bb5760405160e560020a62461bcd02815260206004820152600a60248201527f4f6e6c79206f776e6572000000000000000000000000000000000000000000006044820152606401610a62565b600955565b601154600160a060020a031633146114ed5760405160e560020a62461bcd028152600401610a6290612516565b600e8054600f805473ffffffffffffffffffffffffffffffffffffffff19908116600160a060020a0384161790915516905561152981426125f6565b601055600e54604051600091600160a060020a0316907f8be0079c531659141344cd1fd0a4f28419497f9722a3daafe3b4186f6b6457e0908390a350565b601154600160a060020a031633146115945760405160e560020a62461bcd028152600401610a6290612516565b600160a060020a03821660009081526018602052604090205460ff16156115b9575050565b601b548110611663576115cc8282611e3f565b6040517fbc2b405c00000000000000000000000000000000000000000000000000000000815260126004820152600160a060020a03831660248201526044810182905273231c7f5887213d951107ad2b6e8a6ccfe8ca6eef9063bc2b405c9060640160006040518083038186803b15801561164657600080fd5b505af415801561165a573d6000803e3d6000fd5b505050506116fa565b61166e826000611e3f565b6040517f4c60db9c00000000000000000000000000000000000000000000000000000000815260126004820152600160a060020a038316602482015273231c7f5887213d951107ad2b6e8a6ccfe8ca6eef90634c60db9c9060440160006040518083038186803b1580156116e157600080fd5b505af41580156116f5573d6000803e3d6000fd5b505050505b6117058260016113ad565b505050565b601154600160a060020a031633146117375760405160e560020a62461bcd028152600401610a6290612516565b603c811015801561174b5750620151808111155b61179a5760405160e560020a62461bcd02815260206004820152600560248201527f77726f6e670000000000000000000000000000000000000000000000000000006044820152606401610a62565b601a5460405182907f474ea64804364a1e29a4487ddb63c3342a2dd826ccd8acf48825e680a0e6f20f90600090a3601a55565b601154600160a060020a031633146117fa5760405160e560020a62461bcd028152600401610a6290612516565b600160a060020a0381166118795760405160e560020a62461bcd02815260206004820152602660248201527f4f776e61626c653a206e6577206f776e657220697320746865207a65726f206160448201527f64647265737300000000000000000000000000000000000000000000000000006064820152608401610a62565b600e54604051600160a060020a038084169216907f8be0079c531659141344cd1fd0a4f28419497f9722a3daafe3b4186f6b6457e090600090a3600e805473ffffffffffffffffffffffffffffffffffffffff1916600160a060020a0392909216919091179055565b6040517f17e142d100000000000000000000000000000000000000000000000000000000815260126004820152600160a060020a0382166024820152819060009081908190819081908190819073231c7f5887213d951107ad2b6e8a6ccfe8ca6eef906317e142d19060440160206040518083038186803b15801561196657600080fd5b505af415801561197a573d6000803e3d6000fd5b505050506040513d601f19601f8201168201806040525081019061199e9190612493565b9650600019955060008712611a00576016548711156119cc576016546119c5908890612088565b9550611a00565b601654601254600091106119e15760006119f0565b6016546012546119f091611e98565b90506119fc8882611dee565b9650505b611a0988611259565b9450611a1488610c52565b600160a060020a038916600090815260196020526040902054909450925082611a3e576000611a4c565b601a54611a4c908490611c44565b9150428211611a5c576000611a66565b611a668242611e98565b9050919395975091939597565b6012546000908190819080611a9357505060165460009250829150611b98565b6016546000805a90506000805b8984108015611aae57508582105b15611b875784611abd81612719565b60125490965086109050611ad057600094505b600060126000018681548110611af95760e060020a634e487b7102600052603260045260246000fd5b6000918252602080832090910154600160a060020a03168083526019909152604090912054909150611b2a906120d4565b15611b4d57611b3a8160016113ad565b15611b4d5781611b4981612719565b9250505b82611b5781612719565b93505060005a905080851115611b7e57611b7b611b748683611e98565b8790611c44565b95505b9350611aa09050565b601685905590975095509193505050505b9193909250565b600082611bae57506000610a2f565b6000611bba8385612631565b905082611bc7858361260e565b14611c3d5760405160e560020a62461bcd02815260206004820152602160248201527f536166654d6174683a206d756c7469706c69636174696f6e206f766572666c6f60448201527f77000000000000000000000000000000000000000000000000000000000000006064820152608401610a62565b9392505050565b600080611c5183856125f6565b905083811015611c3d5760405160e560020a62461bcd02815260206004820152601b60248201527f536166654d6174683a206164646974696f6e206f766572666c6f7700000000006044820152606401610a62565b600160a060020a038316611ccf5760405160e560020a62461bcd028152600401610a629061254b565b600160a060020a038216611cf85760405160e560020a62461bcd028152600401610a629061254b565b600160a060020a0383811660008181526001602090815260408083209487168084529482529182902085905590518481527f8c5be1e5ebec7d5bd14f71427d1e84f3dd0314c0f7b2291e5b200ac8c7c3b925910160405180910390a3505050565b60405160e560020a62461bcd02815260206004820152600a60248201527f4e6f20616c6c6f776564000000000000000000000000000000000000000000006044820152606401610a62565b60008184841115611dcb5760405160e560020a62461bcd028152600401610a6291906124c3565b50611dd683856126c4565b949350505050565b60008181811215610a2f57600080fd5b600080611dfb8385612582565b905060008312158015611e0e5750838112155b80611e235750600083128015611e2357508381125b611c3d57600080fd5b600080821215611e3b57600080fd5b5090565b600160a060020a03821660009081526020819052604090205480821115611e78576000611e6c8383611e98565b9050610c4c84826120fb565b80821015611705576000611e8c8284611e98565b9050610c4c848261215f565b600082821115611eed5760405160e560020a62461bcd02815260206004820152601e60248201527f536166654d6174683a207375627472616374696f6e206f766572666c6f7700006044820152606401610a62565b611c3d82846126c4565b600080611f0383611259565b905060095481111561207f57600160a060020a0383166000908152600c6020526040902054611f329082611c44565b600160a060020a0384166000818152600c6020526040908190209290925590517fee503bee2bb6a87e57bc57db795f98137327401a0e7b7ce42e37926cc1a9ca4d90611f819084815260200190565b60405180910390a26008546040517fa9059cbb000000000000000000000000000000000000000000000000000000008152600160a060020a03858116600483015260248201849052600092169063a9059cbb90604401602060405180830381600087803b158015611ff157600080fd5b505af1158015612005573d6000803e3d6000fd5b505050506040513d601f19601f820116820180604052508101906120299190612477565b90508061207857600160a060020a0384166000908152600c60205260409020546120539083611e98565b600160a060020a039094166000908152600c6020526040812094909455509192915050565b5092915050565b50600092915050565b60008082121580156120a35750826120a08382612650565b13155b806120c157506000821280156120c15750826120bf8382612650565b135b6120ca57600080fd5b611c3d8284612650565b6000428211156120e657506000919050565b601a546120f34284611e98565b101592915050565b61210582826121a3565b61213f612120610ca183600654611b9f90919063ffffffff16565b600160a060020a0384166000908152600b602052604090205490612088565b600160a060020a039092166000908152600b602052604090209190915550565b6121698282612285565b61213f612184610ca183600654611b9f90919063ffffffff16565b600160a060020a0384166000908152600b602052604090205490611dee565b600160a060020a0382166121fc5760405160e560020a62461bcd02815260206004820152601f60248201527f45524332303a206d696e7420746f20746865207a65726f2061646472657373006044820152606401610a62565b6002546122099082611c44565b600255600160a060020a03821660009081526020819052604090205461222f9082611c44565b600160a060020a038316600081815260208181526040808320949094559251848152919290917fddf252ad1be2c89b69c2b068fc378daa952ba7f163c4a11628f55a4df523b3ef91015b60405180910390a35050565b600160a060020a0382166122ae5760405160e560020a62461bcd028152600401610a629061254b565b604080518082018252600f81527f657863656564732062616c616e63650000000000000000000000000000000000602080830191909152600160a060020a0385166000908152908190529190912054612308918390611da4565b600160a060020a03831660009081526020819052604090205560025461232e9082611e98565b600255604051818152600090600160a060020a038416907fddf252ad1be2c89b69c2b068fc378daa952ba7f163c4a11628f55a4df523b3ef90602001612279565b600060208284031215612380578081fd5b8135611c3d8161274d565b60006020828403121561239c578081fd5b8151611c3d8161274d565b600080604083850312156123b9578081fd5b82356123c48161274d565b915060208301356123d481612762565b809150509250929050565b600080604083850312156123f1578182fd5b82356123fc8161274d565b946020939093013593505050565b6000806040838503121561241c578182fd5b82356124278161274d565b915060208301356123d48161274d565b60008060006060848603121561244b578081fd5b83356124568161274d565b925060208401356124668161274d565b929592945050506040919091013590565b600060208284031215612488578081fd5b8151611c3d81612762565b6000602082840312156124a4578081fd5b5051919050565b6000602082840312156124bc578081fd5b5035919050565b6000602080835283518082850152825b818110156124ef578581018301518582016040015282016124d3565b818111156125005783604083870101525b50601f01601f1916929092016040019392505050565b6020808252818101527f4f776e61626c653a2063616c6c6572206973206e6f7420746865206f776e6572604082015260600190565b6020808252600c908201527f7a65726f20616464726573730000000000000000000000000000000000000000604082015260600190565b6000808212827f7fffffffffffffffffffffffffffffffffffffffffffffffffffffffffffffff038413811516156125bc576125bc612734565b827f80000000000000000000000000000000000000000000000000000000000000000384128116156125f0576125f0612734565b50500190565b6000821982111561260957612609612734565b500190565b60008261262c5760e060020a634e487b710281526012600452602481fd5b500490565b600081600019048311821515161561264b5761264b612734565b500290565b6000808312837f80000000000000000000000000000000000000000000000000000000000000000183128115161561268a5761268a612734565b837f7fffffffffffffffffffffffffffffffffffffffffffffffffffffffffffffff0183138116156126be576126be612734565b50500390565b6000828210156126d6576126d6612734565b500390565b6002810460018216806126ef57607f821691505b602082108114156127135760e060020a634e487b7102600052602260045260246000fd5b50919050565b600060001982141561272d5761272d612734565b5060010190565b60e060020a634e487b7102600052601160045260246000fd5b600160a060020a0381168114610e8957600080fd5b8015158114610e8957600080fdfe45524332303a207472616e7366657220616d6f756e74206578636565647320616c6c6f77616e636545524332303a2064656372656173656420616c6c6f77616e63652062656c6f77207a65726fa2646970667358221220fa0d9d03ccf0cb70f46052222a168bdef6da80f551d1c7785c2a6d14ab11803564736f6c634300080400334f776e61626c653a2063616c6c6572206973206e6f7420746865206f776e6572",
  "linkReferences": {},
  "deployedLinkReferences": {}
}