{
  "_format": "hh-sol-artifact-1",
  "contractName": "DividendPayingToken",
  "sourceName": "contracts/DividendPayingToken.sol",
  "abi": [
    {
      "inputs": [
        {
          "internalType": "string",
          "name": "_name",
          "type": "string"
        },
        {
          "internalType": "string",
          "name": "_symbol",
          "type": "string"
        },
        {
          "internalType": "address",
          "name": "_token",
          "type": "address"
        }
      ],
      "stateMutability": "nonpayable",
      "type": "constructor"
    },
    {
      "anonymous": false,
      "inputs": [
        {
          "indexed": true,
          "internalType": "address",
          "name": "owner",
          "type": "address"
        },
        {
          "indexed": true,
          "internalType": "address",
          "name": "spender",
          "type": "address"
        },
        {
          "indexed": false,
          "internalType": "uint256",
          "name": "value",
          "type": "uint256"
        }
      ],
      "name": "Approval",
      "type": "event"
    },
    {
      "anonymous": false,
      "inputs": [
        {
          "indexed": true,
          "internalType": "address",
          "name": "to",
          "type": "address"
        },
        {
          "indexed": false,
          "internalType": "uint256",
          "name": "weiAmount",
          "type": "uint256"
        }
      ],
      "name": "DividendWithdrawn",
      "type": "event"
    },
    {
      "anonymous": false,
      "inputs": [
        {
          "indexed": true,
          "internalType": "address",
          "name": "from",
          "type": "address"
        },
        {
          "indexed": false,
          "internalType": "uint256",
          "name": "weiAmount",
          "type": "uint256"
        }
      ],
      "name": "DividendsDistributed",
      "type": "event"
    },
    {
      "anonymous": false,
      "inputs": [
        {
          "indexed": true,
          "internalType": "address",
          "name": "from",
          "type": "address"
        },
        {
          "indexed": true,
          "internalType": "address",
          "name": "to",
          "type": "address"
        },
        {
          "indexed": false,
          "internalType": "uint256",
          "name": "value",
          "type": "uint256"
        }
      ],
      "name": "Transfer",
      "type": "event"
    },
    {
      "inputs": [
        {
          "internalType": "address",
          "name": "_owner",
          "type": "address"
        }
      ],
      "name": "accumulativeDividendOf",
      "outputs": [
        {
          "internalType": "uint256",
          "name": "",
          "type": "uint256"
        }
      ],
      "stateMutability": "view",
      "type": "function"
    },
    {
      "inputs": [
        {
          "internalType": "address",
          "name": "owner",
          "type": "address"
        },
        {
          "internalType": "address",
          "name": "spender",
          "type": "address"
        }
      ],
      "name": "allowance",
      "outputs": [
        {
          "internalType": "uint256",
          "name": "",
          "type": "uint256"
        }
      ],
      "stateMutability": "view",
      "type": "function"
    },
    {
      "inputs": [
        {
          "internalType": "address",
          "name": "spender",
          "type": "address"
        },
        {
          "internalType": "uint256",
          "name": "amount",
          "type": "uint256"
        }
      ],
      "name": "approve",
      "outputs": [
        {
          "internalType": "bool",
          "name": "",
          "type": "bool"
        }
      ],
      "stateMutability": "nonpayable",
      "type": "function"
    },
    {
      "inputs": [
        {
          "internalType": "address",
          "name": "account",
          "type": "address"
        }
      ],
      "name": "balanceOf",
      "outputs": [
        {
          "internalType": "uint256",
          "name": "",
          "type": "uint256"
        }
      ],
      "stateMutability": "view",
      "type": "function"
    },
    {
      "inputs": [],
      "name": "decimals",
      "outputs": [
        {
          "internalType": "uint8",
          "name": "",
          "type": "uint8"
        }
      ],
      "stateMutability": "view",
      "type": "function"
    },
    {
      "inputs": [
        {
          "internalType": "address",
          "name": "spender",
          "type": "address"
        },
        {
          "internalType": "uint256",
          "name": "subtractedValue",
          "type": "uint256"
        }
      ],
      "name": "decreaseAllowance",
      "outputs": [
        {
          "internalType": "bool",
          "name": "",
          "type": "bool"
        }
      ],
      "stateMutability": "nonpayable",
      "type": "function"
    },
    {
      "inputs": [],
      "name": "distributeDividends",
      "outputs": [],
      "stateMutability": "payable",
      "type": "function"
    },
    {
      "inputs": [
        {
          "internalType": "uint256",
          "name": "amount",
          "type": "uint256"
        }
      ],
      "name": "distributeDividends",
      "outputs": [],
      "stateMutability": "nonpayable",
      "type": "function"
    },
    {
      "inputs": [
        {
          "internalType": "address",
          "name": "_owner",
          "type": "address"
        }
      ],
      "name": "dividendOf",
      "outputs": [
        {
          "internalType": "uint256",
          "name": "",
          "type": "uint256"
        }
      ],
      "stateMutability": "view",
      "type": "function"
    },
    {
      "inputs": [],
      "name": "dividendToken",
      "outputs": [
        {
          "internalType": "address",
          "name": "",
          "type": "address"
        }
      ],
      "stateMutability": "view",
      "type": "function"
    },
    {
      "inputs": [
        {
          "internalType": "address",
          "name": "spender",
          "type": "address"
        },
        {
          "internalType": "uint256",
          "name": "addedValue",
          "type": "uint256"
        }
      ],
      "name": "increaseAllowance",
      "outputs": [
        {
          "internalType": "bool",
          "name": "",
          "type": "bool"
        }
      ],
      "stateMutability": "nonpayable",
      "type": "function"
    },
    {
      "inputs": [],
      "name": "minTokenBeforeSendDividend",
      "outputs": [
        {
          "internalType": "uint256",
          "name": "",
          "type": "uint256"
        }
      ],
      "stateMutability": "view",
      "type": "function"
    },
    {
      "inputs": [],
      "name": "name",
      "outputs": [
        {
          "internalType": "string",
          "name": "",
          "type": "string"
        }
      ],
      "stateMutability": "view",
      "type": "function"
    },
    {
      "inputs": [],
      "name": "origin",
      "outputs": [
        {
          "internalType": "address",
          "name": "",
          "type": "address"
        }
      ],
      "stateMutability": "view",
      "type": "function"
    },
    {
      "inputs": [
        {
          "internalType": "address",
          "name": "newToken",
          "type": "address"
        }
      ],
      "name": "setDividendTokenAddress",
      "outputs": [],
      "stateMutability": "nonpayable",
      "type": "function"
    },
    {
      "inputs": [
        {
          "internalType": "uint256",
          "name": "newAmount",
          "type": "uint256"
        }
      ],
      "name": "setMinTokenBeforeSendDividend",
      "outputs": [],
      "stateMutability": "nonpayable",
      "type": "function"
    },
    {
      "inputs": [],
      "name": "symbol",
      "outputs": [
        {
          "internalType": "string",
          "name": "",
          "type": "string"
        }
      ],
      "stateMutability": "view",
      "type": "function"
    },
    {
      "inputs": [],
      "name": "totalDividendsDistributed",
      "outputs": [
        {
          "internalType": "uint256",
          "name": "",
          "type": "uint256"
        }
      ],
      "stateMutability": "view",
      "type": "function"
    },
    {
      "inputs": [],
      "name": "totalSupply",
      "outputs": [
        {
          "internalType": "uint256",
          "name": "",
          "type": "uint256"
        }
      ],
      "stateMutability": "view",
      "type": "function"
    },
    {
      "inputs": [
        {
          "internalType": "address",
          "name": "recipient",
          "type": "address"
        },
        {
          "internalType": "uint256",
          "name": "amount",
          "type": "uint256"
        }
      ],
      "name": "transfer",
      "outputs": [
        {
          "internalType": "bool",
          "name": "",
          "type": "bool"
        }
      ],
      "stateMutability": "nonpayable",
      "type": "function"
    },
    {
      "inputs": [
        {
          "internalType": "address",
          "name": "sender",
          "type": "address"
        },
        {
          "internalType": "address",
          "name": "recipient",
          "type": "address"
        },
        {
          "internalType": "uint256",
          "name": "amount",
          "type": "uint256"
        }
      ],
      "name": "transferFrom",
      "outputs": [
        {
          "internalType": "bool",
          "name": "",
          "type": "bool"
        }
      ],
      "stateMutability": "nonpayable",
      "type": "function"
    },
    {
      "inputs": [],
      "name": "withdrawDividend",
      "outputs": [],
      "stateMutability": "nonpayable",
      "type": "function"
    },
    {
      "inputs": [
        {
          "internalType": "address",
          "name": "_owner",
          "type": "address"
        }
      ],
      "name": "withdrawableDividendOf",
      "outputs": [
        {
          "internalType": "uint256",
          "name": "",
          "type": "uint256"
        }
      ],
      "stateMutability": "view",
      "type": "function"
    },
    {
      "inputs": [
        {
          "internalType": "address",
          "name": "_owner",
          "type": "address"
        }
      ],
      "name": "withdrawnDividendOf",
      "outputs": [
        {
          "internalType": "uint256",
          "name": "",
          "type": "uint256"
        }
      ],
      "stateMutability": "view",
      "type": "function"
    },
    {
      "stateMutability": "payable",
      "type": "receive"
    }
  ],
  "bytecode": "0x608060405260006009553480156200001657600080fd5b5060405162001451380380620014518339810160408190526200003991620001fb565b82518390839062000052906003906020850190620000a2565b50805162000068906004906020840190620000a2565b50506005805460ff191660121790555060088054600160a060020a03909216600160a060020a031990921691909117905550620003099050565b828054620000b09062000284565b90600052602060002090601f016020900481019282620000d457600085556200011f565b82601f10620000ef57805160ff19168380011785556200011f565b828001600101855582156200011f579182015b828111156200011f57825182559160200191906001019062000102565b506200012d92915062000131565b5090565b5b808211156200012d576000815560010162000132565b600082601f83011262000159578081fd5b81516001604060020a0380821115620001765762000176620002da565b604051601f8301601f19908116603f01168101908282118183101715620001a157620001a1620002da565b81604052838152602092508683858801011115620001bd578485fd5b8491505b83821015620001e05785820183015181830184015290820190620001c1565b83821115620001f157848385830101525b9695505050505050565b60008060006060848603121562000210578283fd5b83516001604060020a038082111562000227578485fd5b620002358783880162000148565b945060208601519150808211156200024b578384fd5b506200025a8682870162000148565b60408601519093509050600160a060020a038116811462000279578182fd5b809150509250925092565b6002810460018216806200029957607f821691505b60208210811415620002d4577f4e487b7100000000000000000000000000000000000000000000000000000000600052602260045260246000fd5b50919050565b7f4e487b7100000000000000000000000000000000000000000000000000000000600052604160045260246000fd5b61113880620003196000396000f3fe60806040526004361061016c576000357c0100000000000000000000000000000000000000000000000000000000900480637e3e7fd2116100d3578063a457c2d71161008c578063a457c2d7146103c2578063a8b9d240146103e2578063a9059cbb14610402578063aafd847a14610422578063bd0a238114610458578063dd62ed3e1461047857600080fd5b80637e3e7fd21461032157806385552f601461034157806385a6b3ae1461035757806391b89fba1461036d578063938b5f321461038d57806395d89b41146103ad57600080fd5b806327ce01471161012557806327ce014714610254578063313ce567146102745780633243c7911461029657806339509351146102b65780636a474002146102d657806370a08231146102eb57600080fd5b806303c833021461017857806306fdde0314610182578063095ea7b3146101ad5780631582358e146101dd57806318160ddd1461021557806323b872dd1461023457600080fd5b3661017357005b600080fd5b6101806104be565b005b34801561018e57600080fd5b5061019761055e565b6040516101a49190610ee4565b60405180910390f35b3480156101b957600080fd5b506101cd6101c8366004610e83565b6105f0565b60405190151581526020016101a4565b3480156101e957600080fd5b506008546101fd90600160a060020a031681565b604051600160a060020a0390911681526020016101a4565b34801561022157600080fd5b506002545b6040519081526020016101a4565b34801561024057600080fd5b506101cd61024f366004610e48565b610607565b34801561026057600080fd5b5061022661026f366004610dfc565b610670565b34801561028057600080fd5b5060055460405160ff90911681526020016101a4565b3480156102a257600080fd5b506101806102b1366004610ecc565b6106d9565b3480156102c257600080fd5b506101cd6102d1366004610e83565b610767565b3480156102e257600080fd5b5061018061079d565b3480156102f757600080fd5b50610226610306366004610dfc565b600160a060020a031660009081526020819052604090205490565b34801561032d57600080fd5b5061018061033c366004610dfc565b6107a6565b34801561034d57600080fd5b5061022660095481565b34801561036357600080fd5b50610226600d5481565b34801561037957600080fd5b50610226610388366004610dfc565b610837565b34801561039957600080fd5b50600a546101fd90600160a060020a031681565b3480156103b957600080fd5b50610197610842565b3480156103ce57600080fd5b506101cd6103dd366004610e83565b610851565b3480156103ee57600080fd5b506102266103fd366004610dfc565b6108a0565b34801561040e57600080fd5b506101cd61041d366004610e83565b6108cc565b34801561042e57600080fd5b5061022661043d366004610dfc565b600160a060020a03166000908152600c602052604090205490565b34801561046457600080fd5b50610180610473366004610ecc565b6108d9565b34801561048457600080fd5b50610226610493366004610e16565b600160a060020a03918216600090815260016020908152604080832093909416825291909152205490565b60006104c960025490565b116104d357600080fd5b341561055c576105136104e560025490565b6105003470010000000000000000000000000000000061093b565b61050a9190610fc3565b600654906109e0565b60065560405134815233907fa493a9229478c3fcd73f66d2cdeb7f94fd0f341da924d1054236d784541165119060200160405180910390a2600d5461055890346109e0565b600d555b565b60606003805461056d90611032565b80601f016020809104026020016040519081016040528092919081815260200182805461059990611032565b80156105e65780601f106105bb576101008083540402835291602001916105e6565b820191906000526020600020905b8154815290600101906020018083116105c957829003601f168201915b5050505050905090565b60006105fd338484610a42565b5060015b92915050565b6000610614848484600080fd5b6106668433610661856040518060600160405280602881526020016110b660289139600160a060020a038a1660009081526001602090815260408083203384529091529020549190610b55565b610a42565b5060019392505050565b600160a060020a0381166000908152600b602090815260408083205491839052822054600654700100000000000000000000000000000000926106cf926106ca926106c4916106bf919061093b565b610b8f565b90610b9f565b610bdd565b6106019190610fc3565b60006106e460025490565b116106ee57600080fd5b80156107645761071b61070060025490565b6105008370010000000000000000000000000000000061093b565b60065560405181815233907fa493a9229478c3fcd73f66d2cdeb7f94fd0f341da924d1054236d784541165119060200160405180910390a2600d5461076090826109e0565b600d555b50565b336000818152600160209081526040808320600160a060020a038716845290915281205490916105fd91859061066190866109e0565b61076433610bf0565b600a54600160a060020a031632146108085760405160e560020a62461bcd02815260206004820152600a60248201527f4f6e6c79206f776e65720000000000000000000000000000000000000000000060448201526064015b60405180910390fd5b6008805473ffffffffffffffffffffffffffffffffffffffff1916600160a060020a0392909216919091179055565b6000610601826108a0565b60606004805461056d90611032565b60006105fd3384610661856040518060600160405280602581526020016110de60259139336000908152600160209081526040808320600160a060020a038d1684529091529020549190610b55565b600160a060020a0381166000908152600c6020526040812054610601906108c684610670565b90610d81565b60006105fd338484600080fd5b600a54600160a060020a031632146109365760405160e560020a62461bcd02815260206004820152600a60248201527f4f6e6c79206f776e65720000000000000000000000000000000000000000000060448201526064016107ff565b600955565b60008261094a57506000610601565b60006109568385610ffc565b9050826109638583610fc3565b146109d95760405160e560020a62461bcd02815260206004820152602160248201527f536166654d6174683a206d756c7469706c69636174696f6e206f766572666c6f60448201527f770000000000000000000000000000000000000000000000000000000000000060648201526084016107ff565b9392505050565b6000806109ed8385610fab565b9050838110156109d95760405160e560020a62461bcd02815260206004820152601b60248201527f536166654d6174683a206164646974696f6e206f766572666c6f77000000000060448201526064016107ff565b600160a060020a038316610a9b5760405160e560020a62461bcd02815260206004820152600c60248201527f7a65726f2061646472657373000000000000000000000000000000000000000060448201526064016107ff565b600160a060020a038216610af45760405160e560020a62461bcd02815260206004820152600c60248201527f7a65726f2061646472657373000000000000000000000000000000000000000060448201526064016107ff565b600160a060020a0383811660008181526001602090815260408083209487168084529482529182902085905590518481527f8c5be1e5ebec7d5bd14f71427d1e84f3dd0314c0f7b2291e5b200ac8c7c3b925910160405180910390a3505050565b60008184841115610b7c5760405160e560020a62461bcd0281526004016107ff9190610ee4565b50610b87838561101b565b949350505050565b6000818181121561060157600080fd5b600080610bac8385610f37565b905060008312158015610bbf5750838112155b80610bd45750600083128015610bd457508381125b6109d957600080fd5b600080821215610bec57600080fd5b5090565b600080610bfc836108a0565b9050600954811115610d7857600160a060020a0383166000908152600c6020526040902054610c2b90826109e0565b600160a060020a0384166000818152600c6020526040908190209290925590517fee503bee2bb6a87e57bc57db795f98137327401a0e7b7ce42e37926cc1a9ca4d90610c7a9084815260200190565b60405180910390a26008546040517fa9059cbb000000000000000000000000000000000000000000000000000000008152600160a060020a03858116600483015260248201849052600092169063a9059cbb90604401602060405180830381600087803b158015610cea57600080fd5b505af1158015610cfe573d6000803e3d6000fd5b505050506040513d601f19601f82011682018060405250810190610d229190610eac565b905080610d7157600160a060020a0384166000908152600c6020526040902054610d4c9083610d81565b600160a060020a039094166000908152600c6020526040812094909455509192915050565b5092915050565b50600092915050565b600082821115610dd65760405160e560020a62461bcd02815260206004820152601e60248201527f536166654d6174683a207375627472616374696f6e206f766572666c6f77000060448201526064016107ff565b6109d9828461101b565b8035600160a060020a0381168114610df757600080fd5b919050565b600060208284031215610e0d578081fd5b6109d982610de0565b60008060408385031215610e28578081fd5b610e3183610de0565b9150610e3f60208401610de0565b90509250929050565b600080600060608486031215610e5c578081fd5b610e6584610de0565b9250610e7360208501610de0565b9150604084013590509250925092565b60008060408385031215610e95578182fd5b610e9e83610de0565b946020939093013593505050565b600060208284031215610ebd578081fd5b815180151581146109d9578182fd5b600060208284031215610edd578081fd5b5035919050565b6000602080835283518082850152825b81811015610f1057858101830151858201604001528201610ef4565b81811115610f215783604083870101525b50601f01601f1916929092016040019392505050565b6000808212827f7fffffffffffffffffffffffffffffffffffffffffffffffffffffffffffffff03841381151615610f7157610f71611086565b827f8000000000000000000000000000000000000000000000000000000000000000038412811615610fa557610fa5611086565b50500190565b60008219821115610fbe57610fbe611086565b500190565b600082610ff7577f4e487b710000000000000000000000000000000000000000000000000000000081526012600452602481fd5b500490565b600081600019048311821515161561101657611016611086565b500290565b60008282101561102d5761102d611086565b500390565b60028104600182168061104657607f821691505b60208210811415611080577f4e487b7100000000000000000000000000000000000000000000000000000000600052602260045260246000fd5b50919050565b7f4e487b7100000000000000000000000000000000000000000000000000000000600052601160045260246000fdfe45524332303a207472616e7366657220616d6f756e74206578636565647320616c6c6f77616e636545524332303a2064656372656173656420616c6c6f77616e63652062656c6f77207a65726fa26469706673582212200def881454a87a68cdedbc020e00dfd515c5b98994523fdbe92fa50d7930b23964736f6c63430008040033",
  "linkReferences": {},
  "deployedLinkReferences": {}
}